{"contracts/MatrixTemplate.sol":{"MatrixTemplate":{"abi":[{"inputs":[{"internalType":"uint256","name":"_index","type":"uint256"},{"internalType":"address","name":"_coreAddress","type":"address"},{"internalType":"address[6]","name":"_sixFounders","type":"address[6]"}],"stateMutability":"nonpayable","type":"constructor"},{"anonymous":false,"inputs":[{"indexed":true,"internalType":"address","name":"sender","type":"address"},{"indexed":true,"internalType":"address","name":"receiver","type":"address"},{"indexed":true,"internalType":"uint256","name":"matrixIndex","type":"uint256"}],"name":"SentClaims","type":"event"},{"anonymous":false,"inputs":[{"indexed":true,"internalType":"address","name":"sender","type":"address"},{"indexed":true,"internalType":"address","name":"receiver","type":"address"},{"indexed":true,"internalType":"uint256","name":"matrixIndex","type":"uint256"}],"name":"SentHalf","type":"event"},{"stateMutability":"payable","type":"fallback"},{"inputs":[{"internalType":"address","name":"","type":"address"}],"name":"Addresses","outputs":[{"internalType":"uint256","name":"index","type":"uint256"},{"internalType":"uint256","name":"parent","type":"uint256"},{"internalType":"bool","name":"isRight","type":"bool"},{"internalType":"uint256","name":"plateau","type":"uint256"},{"internalType":"bool","name":"isValue","type":"bool"}],"stateMutability":"view","type":"function"},{"inputs":[],"name":"CoreAddress","outputs":[{"internalType":"address","name":"","type":"address"}],"stateMutability":"view","type":"function"},{"inputs":[{"internalType":"uint256","name":"","type":"uint256"}],"name":"Indices","outputs":[{"internalType":"address","name":"","type":"address"}],"stateMutability":"view","type":"function"},{"inputs":[],"name":"IndicesTotal","outputs":[{"internalType":"uint256","name":"","type":"uint256"}],"stateMutability":"view","type":"function"},{"inputs":[{"internalType":"address","name":"_wallet","type":"address"}],"name":"getUser","outputs":[{"components":[{"internalType":"uint256","name":"index","type":"uint256"},{"internalType":"uint256","name":"parent","type":"uint256"},{"internalType":"bool","name":"isRight","type":"bool"},{"internalType":"uint256","name":"plateau","type":"uint256"},{"internalType":"bool","name":"isValue","type":"bool"}],"internalType":"struct MatrixTemplate.User","name":"user","type":"tuple"},{"internalType":"uint256","name":"total","type":"uint256"}],"stateMutability":"view","type":"function"},{"inputs":[{"internalType":"uint256","name":"_index","type":"uint256"}],"name":"getUserAddressByIndex","outputs":[{"internalType":"address","name":"","type":"address"}],"stateMutability":"view","type":"function"},{"inputs":[],"name":"matrixIndex","outputs":[{"internalType":"uint256","name":"","type":"uint256"}],"stateMutability":"view","type":"function"},{"inputs":[{"internalType":"address","name":"_wallet","type":"address"}],"name":"register","outputs":[],"stateMutability":"nonpayable","type":"function"},{"stateMutability":"payable","type":"receive"}],"evm":{"bytecode":{"linkReferences":{},"object":"60c06040523480156200001157600080fd5b5060405162001b8e38038062001b8e83398101604081905262000034916200059e565b60005b60068160ff161015620001ac576000808062000052620001c6565b6040805160a0810182526002548152602081018590526000918101829052606081018490526001608082015293965091945092508290036200009657600160408201525b80600080888860ff1660068110620000b257620000b26200064c565b602090810291909101516001600160a01b031682528181019290925260409081016000208351815591830151600183015582015160028201805491151560ff199283161790556060830151600383015560809092015160049091018054911515919092161790558560ff8616600681106200013157620001316200064c565b6020020151600160008760ff16815260200190815260200160002060006101000a8154816001600160a01b0302191690836001600160a01b031602179055506200018d6001600254620004e660201b620006351790919060201c565b60025550839250620001a3915082905062000678565b91505062000037565b50506080919091526001600160a01b031660a05262000831565b600080600080620003aa620001ec60028054620004e660201b620006351790919060201c565b604080517ff8f9cbfae6cc78fbefe7cdc3a1793dfcf4f0e8bbd8cec470b6a28a7a5a3e1efd81527ff5ecf1b3e9debc68e1d9cfabc5997135bfb7a7a3938b7b606b5b4b3f2f1f0ffe60208201527ff6e4ed9ff2d6b458eadcdf97bd91692de2d4da8fd2d0ac50c6ae9a8272523616818301527fc8c0b887b0a8a4489c948c7f847c6125746c645c544c444038302820181008ff60608201527ff7cae577eec2a03cf3bad76fb589591debb2dd67e0aa9834bea6925f6a4a2e0e60808201527fe39ed557db96902cd38ed14fad815115c786af479b7e8324736353433727170760a08201527fc976c13bb96e881cb166a933a55e490d9d56952b8d4e801485467d236242260660c08201527f753a6d1b65325d0c552a4d1345224105391a310b29122104190a11030902010060e0820152610100808201909252600160f81b6001600160801b68010000000000000000640100000000620100006010600460026000198c019081041790810417908104178881041790810417908104179081041790810417017e818283848586878898a8b8c8d8e8f929395969799a9b9d9e9faaeb6bedeeff0281900460ff039091015104600160ff1b909211020190565b905060006002821015620003c157506000620003eb565b620003e86000620003e2600285620004fd60201b6200064a1790919060201c565b6200050b565b90505b60006200040e6000620003e2600186620004fd60201b6200064a1790919060201c565b90506000816002546200042291906200069a565b6200042f906001620006b0565b905060006200044e6002836200054f60201b620006561790919060201c565b905060006200046d6002846200055d60201b620006621790919060201c565b9050600181101562000482575060016200049f565b6200049c8282620004e660201b620006351790919060201c565b90505b6000620004d5620004c0600184620004fd60201b6200064a1790919060201c565b87620004e660201b620006351790919060201c565b9a9699509197509495505050505050565b6000620004f48284620006b0565b90505b92915050565b6000620004f482846200069a565b6000825b82811015620005485762000525816002620007c3565b620005319083620006b0565b9150806200053f81620007d1565b9150506200050f565b5092915050565b6000620004f4828462000803565b6000620004f482846200081a565b80516001600160a01b03811681146200058357600080fd5b919050565b634e487b7160e01b600052604160045260246000fd5b6000806000610100808587031215620005b657600080fd5b845193506020620005c98187016200056b565b935086605f870112620005db57600080fd5b60405160c081016001600160401b038111828210171562000600576200060062000588565b6040529186019180888411156200061657600080fd5b604088015b848110156200063d576200062f816200056b565b82529083019083016200061b565b50508093505050509250925092565b634e487b7160e01b600052603260045260246000fd5b634e487b7160e01b600052601160045260246000fd5b600060ff821660ff810362000691576200069162000662565b60010192915050565b81810381811115620004f757620004f762000662565b80820180821115620004f757620004f762000662565b600181815b8085111562000707578160001904821115620006eb57620006eb62000662565b80851615620006f957918102915b93841c9390800290620006cb565b509250929050565b6000826200072057506001620004f7565b816200072f57506000620004f7565b8160018114620007485760028114620007535762000773565b6001915050620004f7565b60ff84111562000767576200076762000662565b50506001821b620004f7565b5060208310610133831016604e8410600b841016171562000798575081810a620004f7565b620007a48383620006c6565b8060001904821115620007bb57620007bb62000662565b029392505050565b6000620004f483836200070f565b600060018201620007e657620007e662000662565b5060010190565b634e487b7160e01b600052601260045260246000fd5b600082620008155762000815620007ed565b500690565b6000826200082c576200082c620007ed565b500490565b60805160a0516112b9620008d56000396000818161027a015281816102a70152818161046b01528181610a6501528181610b1a01528181610baa0152610d0e01526000818161019001528181610444015281816104c90152818161056d015281816109f301528181610a3801528181610aed01528181610b7d01528181610c0801528181610c9901528181610ce101528181610d6c0152610dfd01526112b96000f3fe6080604052600436106100795760003560e01c80639a0fa3c01161004b5780639a0fa3c01461017e578063cca76c5d146101b2578063d88f666b146101e8578063ffc0483d1461026857005b80634420e48614610082578063554d63c5146100a25780636f77926b146100cb578063984da82e1461013057005b3661008057005b005b34801561008e57600080fd5b5061008061009d366004611069565b61029c565b3480156100ae57600080fd5b506100b860025481565b6040519081526020015b60405180910390f35b3480156100d757600080fd5b506100eb6100e6366004611069565b610599565b604080518351815260208085015190820152838201511515918101919091526060808401519082015260809283015115159281019290925260a082015260c0016100c2565b34801561013c57600080fd5b5061016661014b366004611099565b6001602052600090815260409020546001600160a01b031681565b6040516001600160a01b0390911681526020016100c2565b34801561018a57600080fd5b506100b87f000000000000000000000000000000000000000000000000000000000000000081565b3480156101be57600080fd5b506101666101cd366004611099565b6000908152600160205260409020546001600160a01b031690565b3480156101f457600080fd5b50610237610203366004611069565b600060208190529081526040902080546001820154600283015460038401546004909401549293919260ff91821692911685565b6040516100c29594939291909485526020850193909352901515604084015260608301521515608082015260a00190565b34801561027457600080fd5b506101667f000000000000000000000000000000000000000000000000000000000000000081565b336001600160a01b037f00000000000000000000000000000000000000000000000000000000000000001614610332576040517f08c379a000000000000000000000000000000000000000000000000000000000815260206004820152601060248201527f6163636573732064656e69656420303200000000000000000000000000000000604482015260640160405180910390fd5b600080600061033f61066e565b6040805160a08101825260025481526020810185905260009181018290526060810184905260016080820152939650919450925082900361039157600160408201528315610391576103918486610950565b6001600160a01b03851660009081526020818152604091829020835181559083015160018201559082015160028201805491151560ff1992831617905560608301516003830155608083015160049092018054921515929091169190911790556103fa85610eb3565b600084815260016020526040908190205490517fdfac767c0000000000000000000000000000000000000000000000000000000081526001600160a01b03918216600482018190527f00000000000000000000000000000000000000000000000000000000000000006024830152917f0000000000000000000000000000000000000000000000000000000000000000169063dfac767c90604401600060405180830381600087803b1580156104af57600080fd5b505af11580156104c3573d6000803e3d6000fd5b505050507f0000000000000000000000000000000000000000000000000000000000000000816001600160a01b0316876001600160a01b03167fecc93e3681e475770b08d7067a66d2a6e16620b712ed2dab831114964ca6326a60405160405180910390a46105666040518060400160405280600881526020017f53656e7448616c66000000000000000000000000000000000000000000000000815250610f0a565b61059186827f0000000000000000000000000000000000000000000000000000000000000000610f7e565b505050505050565b6105cf6040518060a001604052806000815260200160008152602001600015158152602001600081526020016000151581525090565b506001600160a01b031660009081526020818152604091829020825160a0810184528154815260018201549281019290925260028082015460ff908116151594840194909452600382015460608401526004909101549092161515608082015290549091565b600061064182846110c8565b90505b92915050565b600061064182846110db565b60006106418284611104565b60006106418284611118565b60008060008061088f61068c6002805461063590919063ffffffff16565b604080517ff8f9cbfae6cc78fbefe7cdc3a1793dfcf4f0e8bbd8cec470b6a28a7a5a3e1efd81527ff5ecf1b3e9debc68e1d9cfabc5997135bfb7a7a3938b7b606b5b4b3f2f1f0ffe60208201527ff6e4ed9ff2d6b458eadcdf97bd91692de2d4da8fd2d0ac50c6ae9a8272523616818301527fc8c0b887b0a8a4489c948c7f847c6125746c645c544c444038302820181008ff60608201527ff7cae577eec2a03cf3bad76fb589591debb2dd67e0aa9834bea6925f6a4a2e0e60808201527fe39ed557db96902cd38ed14fad815115c786af479b7e8324736353433727170760a08201527fc976c13bb96e881cb166a933a55e490d9d56952b8d4e801485467d236242260660c08201527f753a6d1b65325d0c552a4d1345224105391a310b29122104190a11030902010060e08201526101008082019092527f0100000000000000000000000000000000000000000000000000000000000000600170010000000000000000000000000000000068010000000000000000640100000000620100006010600460026000198c019081041790810417908104178881041790810417908104179081041790810417017e818283848586878898a8b8c8d8e8f929395969799a9b9d9e9faaeb6bedeeff0281900460ff0390910151047f8000000000000000000000000000000000000000000000000000000000000000909211020190565b9050600060028210156108a4575060006108bc565b6108b960006108b484600261064a565b611008565b90505b60006108cd816108b485600161064a565b90506000816002546108df91906110db565b6108ea9060016110c8565b905060006108f9826002610656565b90506000610908836002610662565b9050600181101561091b57506001610928565b6109258183610635565b90505b600061093f61093883600161064a565b8790610635565b9a9699509197509495505050505050565b6000828152600160208181526040808420546001600160a01b031680855284835293819020815160a08101835281548152938101549284019290925260028083015460ff9081161515928501929092526003830154606085015260049092015416151560808301525b60058111610eac57816040015115610eac576020808301516000908152600190915260409020546001600160a01b031660038211610cc2577f0000000000000000000000000000000000000000000000000000000000000000600003610ac6576040516302e525d360e11b81526001600160a01b0382811660048301527f00000000000000000000000000000000000000000000000000000000000000006024830152600060448301527f000000000000000000000000000000000000000000000000000000000000000016906305ca4ba690606401600060405180830381600087803b158015610aa957600080fd5b505af1158015610abd573d6000803e3d6000fd5b50505050610e2f565b81600203610b5e576040516302e525d360e11b81526001600160a01b0382811660048301527f00000000000000000000000000000000000000000000000000000000000000006024830152600260448301527f000000000000000000000000000000000000000000000000000000000000000016906305ca4ba690606401600060405180830381600087803b158015610aa957600080fd5b6040516302e525d360e11b81526001600160a01b0382811660048301527f00000000000000000000000000000000000000000000000000000000000000006024830152600160448301527f000000000000000000000000000000000000000000000000000000000000000016906305ca4ba690606401600060405180830381600087803b158015610bee57600080fd5b505af1158015610c02573d6000803e3d6000fd5b505050507f0000000000000000000000000000000000000000000000000000000000000000816001600160a01b0316866001600160a01b03167f083f8def74523adc5a40763e69a11fe897a82317bbd31a43bce33f3f140bfe0d60405160405180910390a4610c926040518060400160405280600a81526020016953656e74436c61696d7360b01b815250610f0a565b610cbd85827f0000000000000000000000000000000000000000000000000000000000000000610f7e565b610e2f565b6040516302e525d360e11b81526001600160a01b0382811660048301527f00000000000000000000000000000000000000000000000000000000000000006024830152600160448301527f000000000000000000000000000000000000000000000000000000000000000016906305ca4ba690606401600060405180830381600087803b158015610d5257600080fd5b505af1158015610d66573d6000803e3d6000fd5b505050507f0000000000000000000000000000000000000000000000000000000000000000816001600160a01b0316866001600160a01b03167f083f8def74523adc5a40763e69a11fe897a82317bbd31a43bce33f3f140bfe0d60405160405180910390a4610df66040518060400160405280600a81526020016953656e74436c61696d7360b01b815250610f0a565b610e2185827f0000000000000000000000000000000000000000000000000000000000000000610f7e565b81600503610e2f5750610eac565b50602091820151600090815260018084526040808320546001600160a01b0316835282855291829020825160a081018452815481529181015494820194909452600284015460ff90811615159282019290925260038401546060820152600490930154161515608083015280610ea48161112c565b9150506109b9565b5050505050565b60028054600090815260016020819052604090912080547fffffffffffffffffffffffff0000000000000000000000000000000000000000166001600160a01b0385161790559054610f0491610635565b60025550565b610f7b81604051602401610f1e9190611145565b60408051601f198184030181529190526020810180517bffffffffffffffffffffffffffffffffffffffffffffffffffffffff167f41304fac00000000000000000000000000000000000000000000000000000000179052611044565b50565b6040516001600160a01b03808516602483015283166044820152606481018290526110039060840160408051601f198184030181529190526020810180517bffffffffffffffffffffffffffffffffffffffffffffffffffffffff167f17fe618500000000000000000000000000000000000000000000000000000000179052611044565b505050565b6000825b8281101561103d5761101f816002611277565b61102990836110c8565b9150806110358161112c565b91505061100c565b5092915050565b610f7b8160006a636f6e736f6c652e6c6f679050600080835160208501845afa505050565b60006020828403121561107b57600080fd5b81356001600160a01b038116811461109257600080fd5b9392505050565b6000602082840312156110ab57600080fd5b5035919050565b634e487b7160e01b600052601160045260246000fd5b80820180821115610644576106446110b2565b81810381811115610644576106446110b2565b634e487b7160e01b600052601260045260246000fd5b600082611113576111136110ee565b500690565b600082611127576111276110ee565b500490565b60006001820161113e5761113e6110b2565b5060010190565b600060208083528351808285015260005b8181101561117257858101830151858201604001528201611156565b506000604082860101526040601f19601f8301168501019250505092915050565b600181815b808511156111ce5781600019048211156111b4576111b46110b2565b808516156111c157918102915b93841c9390800290611198565b509250929050565b6000826111e557506001610644565b816111f257506000610644565b816001811461120857600281146112125761122e565b6001915050610644565b60ff841115611223576112236110b2565b50506001821b610644565b5060208310610133831016604e8410600b8410161715611251575081810a610644565b61125b8383611193565b806000190482111561126f5761126f6110b2565b029392505050565b600061064183836111d656fea2646970667358221220f42eefccb5bcd732b4d3f54665f1fb33507e9976b6ed058c747d58fab2c81e7864736f6c63430008110033","opcodes":"PUSH1 0xC0 PUSH1 0x40 MSTORE CALLVALUE DUP1 ISZERO PUSH3 0x11 JUMPI PUSH1 0x0 DUP1 REVERT JUMPDEST POP PUSH1 0x40 MLOAD PUSH3 0x1B8E CODESIZE SUB DUP1 PUSH3 0x1B8E DUP4 CODECOPY DUP2 ADD PUSH1 0x40 DUP2 SWAP1 MSTORE PUSH3 0x34 SWAP2 PUSH3 0x59E JUMP JUMPDEST PUSH1 0x0 JUMPDEST PUSH1 0x6 DUP2 PUSH1 0xFF AND LT ISZERO PUSH3 0x1AC JUMPI PUSH1 0x0 DUP1 DUP1 PUSH3 0x52 PUSH3 0x1C6 JUMP JUMPDEST PUSH1 0x40 DUP1 MLOAD PUSH1 0xA0 DUP2 ADD DUP3 MSTORE PUSH1 0x2 SLOAD DUP2 MSTORE PUSH1 0x20 DUP2 ADD DUP6 SWAP1 MSTORE PUSH1 0x0 SWAP2 DUP2 ADD DUP3 SWAP1 MSTORE PUSH1 0x60 DUP2 ADD DUP5 SWAP1 MSTORE PUSH1 0x1 PUSH1 0x80 DUP3 ADD MSTORE SWAP4 SWAP7 POP SWAP2 SWAP5 POP SWAP3 POP DUP3 SWAP1 SUB PUSH3 0x96 JUMPI PUSH1 0x1 PUSH1 0x40 DUP3 ADD MSTORE JUMPDEST DUP1 PUSH1 0x0 DUP1 DUP9 DUP9 PUSH1 0xFF AND PUSH1 0x6 DUP2 LT PUSH3 0xB2 JUMPI PUSH3 0xB2 PUSH3 0x64C JUMP JUMPDEST PUSH1 0x20 SWAP1 DUP2 MUL SWAP2 SWAP1 SWAP2 ADD MLOAD PUSH1 0x1 PUSH1 0x1 PUSH1 0xA0 SHL SUB AND DUP3 MSTORE DUP2 DUP2 ADD SWAP3 SWAP1 SWAP3 MSTORE PUSH1 0x40 SWAP1 DUP2 ADD PUSH1 0x0 KECCAK256 DUP4 MLOAD DUP2 SSTORE SWAP2 DUP4 ADD MLOAD PUSH1 0x1 DUP4 ADD SSTORE DUP3 ADD MLOAD PUSH1 0x2 DUP3 ADD DUP1 SLOAD SWAP2 ISZERO ISZERO PUSH1 0xFF NOT SWAP3 DUP4 AND OR SWAP1 SSTORE PUSH1 0x60 DUP4 ADD MLOAD PUSH1 0x3 DUP4 ADD SSTORE PUSH1 0x80 SWAP1 SWAP3 ADD MLOAD PUSH1 0x4 SWAP1 SWAP2 ADD DUP1 SLOAD SWAP2 ISZERO ISZERO SWAP2 SWAP1 SWAP3 AND OR SWAP1 SSTORE DUP6 PUSH1 0xFF DUP7 AND PUSH1 0x6 DUP2 LT PUSH3 0x131 JUMPI PUSH3 0x131 PUSH3 0x64C JUMP JUMPDEST PUSH1 0x20 MUL ADD MLOAD PUSH1 0x1 PUSH1 0x0 DUP8 PUSH1 0xFF AND DUP2 MSTORE PUSH1 0x20 ADD SWAP1 DUP2 MSTORE PUSH1 0x20 ADD PUSH1 0x0 KECCAK256 PUSH1 0x0 PUSH2 0x100 EXP DUP2 SLOAD DUP2 PUSH1 0x1 PUSH1 0x1 PUSH1 0xA0 SHL SUB MUL NOT AND SWAP1 DUP4 PUSH1 0x1 PUSH1 0x1 PUSH1 0xA0 SHL SUB AND MUL OR SWAP1 SSTORE POP PUSH3 0x18D PUSH1 0x1 PUSH1 0x2 SLOAD PUSH3 0x4E6 PUSH1 0x20 SHL PUSH3 0x635 OR SWAP1 SWAP2 SWAP1 PUSH1 0x20 SHR JUMP JUMPDEST PUSH1 0x2 SSTORE POP DUP4 SWAP3 POP PUSH3 0x1A3 SWAP2 POP DUP3 SWAP1 POP PUSH3 0x678 JUMP JUMPDEST SWAP2 POP POP PUSH3 0x37 JUMP JUMPDEST POP POP PUSH1 0x80 SWAP2 SWAP1 SWAP2 MSTORE PUSH1 0x1 PUSH1 0x1 PUSH1 0xA0 SHL SUB AND PUSH1 0xA0 MSTORE PUSH3 0x831 JUMP JUMPDEST PUSH1 0x0 DUP1 PUSH1 0x0 DUP1 PUSH3 0x3AA PUSH3 0x1EC PUSH1 0x2 DUP1 SLOAD PUSH3 0x4E6 PUSH1 0x20 SHL PUSH3 0x635 OR SWAP1 SWAP2 SWAP1 PUSH1 0x20 SHR JUMP JUMPDEST PUSH1 0x40 DUP1 MLOAD PUSH32 0xF8F9CBFAE6CC78FBEFE7CDC3A1793DFCF4F0E8BBD8CEC470B6A28A7A5A3E1EFD DUP2 MSTORE PUSH32 0xF5ECF1B3E9DEBC68E1D9CFABC5997135BFB7A7A3938B7B606B5B4B3F2F1F0FFE PUSH1 0x20 DUP3 ADD MSTORE PUSH32 0xF6E4ED9FF2D6B458EADCDF97BD91692DE2D4DA8FD2D0AC50C6AE9A8272523616 DUP2 DUP4 ADD MSTORE PUSH32 0xC8C0B887B0A8A4489C948C7F847C6125746C645C544C444038302820181008FF PUSH1 0x60 DUP3 ADD MSTORE PUSH32 0xF7CAE577EEC2A03CF3BAD76FB589591DEBB2DD67E0AA9834BEA6925F6A4A2E0E PUSH1 0x80 DUP3 ADD MSTORE PUSH32 0xE39ED557DB96902CD38ED14FAD815115C786AF479B7E83247363534337271707 PUSH1 0xA0 DUP3 ADD MSTORE PUSH32 0xC976C13BB96E881CB166A933A55E490D9D56952B8D4E801485467D2362422606 PUSH1 0xC0 DUP3 ADD MSTORE PUSH32 0x753A6D1B65325D0C552A4D1345224105391A310B29122104190A110309020100 PUSH1 0xE0 DUP3 ADD MSTORE PUSH2 0x100 DUP1 DUP3 ADD SWAP1 SWAP3 MSTORE PUSH1 0x1 PUSH1 0xF8 SHL PUSH1 0x1 PUSH1 0x1 PUSH1 0x80 SHL PUSH9 0x10000000000000000 PUSH5 0x100000000 PUSH3 0x10000 PUSH1 0x10 PUSH1 0x4 PUSH1 0x2 PUSH1 0x0 NOT DUP13 ADD SWAP1 DUP2 DIV OR SWAP1 DUP2 DIV OR SWAP1 DUP2 DIV OR DUP9 DUP2 DIV OR SWAP1 DUP2 DIV OR SWAP1 DUP2 DIV OR SWAP1 DUP2 DIV OR SWAP1 DUP2 DIV OR ADD PUSH31 0x818283848586878898A8B8C8D8E8F929395969799A9B9D9E9FAAEB6BEDEEFF MUL DUP2 SWAP1 DIV PUSH1 0xFF SUB SWAP1 SWAP2 ADD MLOAD DIV PUSH1 0x1 PUSH1 0xFF SHL SWAP1 SWAP3 GT MUL ADD SWAP1 JUMP JUMPDEST SWAP1 POP PUSH1 0x0 PUSH1 0x2 DUP3 LT ISZERO PUSH3 0x3C1 JUMPI POP PUSH1 0x0 PUSH3 0x3EB JUMP JUMPDEST PUSH3 0x3E8 PUSH1 0x0 PUSH3 0x3E2 PUSH1 0x2 DUP6 PUSH3 0x4FD PUSH1 0x20 SHL PUSH3 0x64A OR SWAP1 SWAP2 SWAP1 PUSH1 0x20 SHR JUMP JUMPDEST PUSH3 0x50B JUMP JUMPDEST SWAP1 POP JUMPDEST PUSH1 0x0 PUSH3 0x40E PUSH1 0x0 PUSH3 0x3E2 PUSH1 0x1 DUP7 PUSH3 0x4FD PUSH1 0x20 SHL PUSH3 0x64A OR SWAP1 SWAP2 SWAP1 PUSH1 0x20 SHR JUMP JUMPDEST SWAP1 POP PUSH1 0x0 DUP2 PUSH1 0x2 SLOAD PUSH3 0x422 SWAP2 SWAP1 PUSH3 0x69A JUMP JUMPDEST PUSH3 0x42F SWAP1 PUSH1 0x1 PUSH3 0x6B0 JUMP JUMPDEST SWAP1 POP PUSH1 0x0 PUSH3 0x44E PUSH1 0x2 DUP4 PUSH3 0x54F PUSH1 0x20 SHL PUSH3 0x656 OR SWAP1 SWAP2 SWAP1 PUSH1 0x20 SHR JUMP JUMPDEST SWAP1 POP PUSH1 0x0 PUSH3 0x46D PUSH1 0x2 DUP5 PUSH3 0x55D PUSH1 0x20 SHL PUSH3 0x662 OR SWAP1 SWAP2 SWAP1 PUSH1 0x20 SHR JUMP JUMPDEST SWAP1 POP PUSH1 0x1 DUP2 LT ISZERO PUSH3 0x482 JUMPI POP PUSH1 0x1 PUSH3 0x49F JUMP JUMPDEST PUSH3 0x49C DUP3 DUP3 PUSH3 0x4E6 PUSH1 0x20 SHL PUSH3 0x635 OR SWAP1 SWAP2 SWAP1 PUSH1 0x20 SHR JUMP JUMPDEST SWAP1 POP JUMPDEST PUSH1 0x0 PUSH3 0x4D5 PUSH3 0x4C0 PUSH1 0x1 DUP5 PUSH3 0x4FD PUSH1 0x20 SHL PUSH3 0x64A OR SWAP1 SWAP2 SWAP1 PUSH1 0x20 SHR JUMP JUMPDEST DUP8 PUSH3 0x4E6 PUSH1 0x20 SHL PUSH3 0x635 OR SWAP1 SWAP2 SWAP1 PUSH1 0x20 SHR JUMP JUMPDEST SWAP11 SWAP7 SWAP10 POP SWAP2 SWAP8 POP SWAP5 SWAP6 POP POP POP POP POP POP JUMP JUMPDEST PUSH1 0x0 PUSH3 0x4F4 DUP3 DUP5 PUSH3 0x6B0 JUMP JUMPDEST SWAP1 POP JUMPDEST SWAP3 SWAP2 POP POP JUMP JUMPDEST PUSH1 0x0 PUSH3 0x4F4 DUP3 DUP5 PUSH3 0x69A JUMP JUMPDEST PUSH1 0x0 DUP3 JUMPDEST DUP3 DUP2 LT ISZERO PUSH3 0x548 JUMPI PUSH3 0x525 DUP2 PUSH1 0x2 PUSH3 0x7C3 JUMP JUMPDEST PUSH3 0x531 SWAP1 DUP4 PUSH3 0x6B0 JUMP JUMPDEST SWAP2 POP DUP1 PUSH3 0x53F DUP2 PUSH3 0x7D1 JUMP JUMPDEST SWAP2 POP POP PUSH3 0x50F JUMP JUMPDEST POP SWAP3 SWAP2 POP POP JUMP JUMPDEST PUSH1 0x0 PUSH3 0x4F4 DUP3 DUP5 PUSH3 0x803 JUMP JUMPDEST PUSH1 0x0 PUSH3 0x4F4 DUP3 DUP5 PUSH3 0x81A JUMP JUMPDEST DUP1 MLOAD PUSH1 0x1 PUSH1 0x1 PUSH1 0xA0 SHL SUB DUP2 AND DUP2 EQ PUSH3 0x583 JUMPI PUSH1 0x0 DUP1 REVERT JUMPDEST SWAP2 SWAP1 POP JUMP JUMPDEST PUSH4 0x4E487B71 PUSH1 0xE0 SHL PUSH1 0x0 MSTORE PUSH1 0x41 PUSH1 0x4 MSTORE PUSH1 0x24 PUSH1 0x0 REVERT JUMPDEST PUSH1 0x0 DUP1 PUSH1 0x0 PUSH2 0x100 DUP1 DUP6 DUP8 SUB SLT ISZERO PUSH3 0x5B6 JUMPI PUSH1 0x0 DUP1 REVERT JUMPDEST DUP5 MLOAD SWAP4 POP PUSH1 0x20 PUSH3 0x5C9 DUP2 DUP8 ADD PUSH3 0x56B JUMP JUMPDEST SWAP4 POP DUP7 PUSH1 0x5F DUP8 ADD SLT PUSH3 0x5DB JUMPI PUSH1 0x0 DUP1 REVERT JUMPDEST PUSH1 0x40 MLOAD PUSH1 0xC0 DUP2 ADD PUSH1 0x1 PUSH1 0x1 PUSH1 0x40 SHL SUB DUP2 GT DUP3 DUP3 LT OR ISZERO PUSH3 0x600 JUMPI PUSH3 0x600 PUSH3 0x588 JUMP JUMPDEST PUSH1 0x40 MSTORE SWAP2 DUP7 ADD SWAP2 DUP1 DUP9 DUP5 GT ISZERO PUSH3 0x616 JUMPI PUSH1 0x0 DUP1 REVERT JUMPDEST PUSH1 0x40 DUP9 ADD JUMPDEST DUP5 DUP2 LT ISZERO PUSH3 0x63D JUMPI PUSH3 0x62F DUP2 PUSH3 0x56B JUMP JUMPDEST DUP3 MSTORE SWAP1 DUP4 ADD SWAP1 DUP4 ADD PUSH3 0x61B JUMP JUMPDEST POP POP DUP1 SWAP4 POP POP POP POP SWAP3 POP SWAP3 POP SWAP3 JUMP JUMPDEST PUSH4 0x4E487B71 PUSH1 0xE0 SHL PUSH1 0x0 MSTORE PUSH1 0x32 PUSH1 0x4 MSTORE PUSH1 0x24 PUSH1 0x0 REVERT JUMPDEST PUSH4 0x4E487B71 PUSH1 0xE0 SHL PUSH1 0x0 MSTORE PUSH1 0x11 PUSH1 0x4 MSTORE PUSH1 0x24 PUSH1 0x0 REVERT JUMPDEST PUSH1 0x0 PUSH1 0xFF DUP3 AND PUSH1 0xFF DUP2 SUB PUSH3 0x691 JUMPI PUSH3 0x691 PUSH3 0x662 JUMP JUMPDEST PUSH1 0x1 ADD SWAP3 SWAP2 POP POP JUMP JUMPDEST DUP2 DUP2 SUB DUP2 DUP2 GT ISZERO PUSH3 0x4F7 JUMPI PUSH3 0x4F7 PUSH3 0x662 JUMP JUMPDEST DUP1 DUP3 ADD DUP1 DUP3 GT ISZERO PUSH3 0x4F7 JUMPI PUSH3 0x4F7 PUSH3 0x662 JUMP JUMPDEST PUSH1 0x1 DUP2 DUP2 JUMPDEST DUP1 DUP6 GT ISZERO PUSH3 0x707 JUMPI DUP2 PUSH1 0x0 NOT DIV DUP3 GT ISZERO PUSH3 0x6EB JUMPI PUSH3 0x6EB PUSH3 0x662 JUMP JUMPDEST DUP1 DUP6 AND ISZERO PUSH3 0x6F9 JUMPI SWAP2 DUP2 MUL SWAP2 JUMPDEST SWAP4 DUP5 SHR SWAP4 SWAP1 DUP1 MUL SWAP1 PUSH3 0x6CB JUMP JUMPDEST POP SWAP3 POP SWAP3 SWAP1 POP JUMP JUMPDEST PUSH1 0x0 DUP3 PUSH3 0x720 JUMPI POP PUSH1 0x1 PUSH3 0x4F7 JUMP JUMPDEST DUP2 PUSH3 0x72F JUMPI POP PUSH1 0x0 PUSH3 0x4F7 JUMP JUMPDEST DUP2 PUSH1 0x1 DUP2 EQ PUSH3 0x748 JUMPI PUSH1 0x2 DUP2 EQ PUSH3 0x753 JUMPI PUSH3 0x773 JUMP JUMPDEST PUSH1 0x1 SWAP2 POP POP PUSH3 0x4F7 JUMP JUMPDEST PUSH1 0xFF DUP5 GT ISZERO PUSH3 0x767 JUMPI PUSH3 0x767 PUSH3 0x662 JUMP JUMPDEST POP POP PUSH1 0x1 DUP3 SHL PUSH3 0x4F7 JUMP JUMPDEST POP PUSH1 0x20 DUP4 LT PUSH2 0x133 DUP4 LT AND PUSH1 0x4E DUP5 LT PUSH1 0xB DUP5 LT AND OR ISZERO PUSH3 0x798 JUMPI POP DUP2 DUP2 EXP PUSH3 0x4F7 JUMP JUMPDEST PUSH3 0x7A4 DUP4 DUP4 PUSH3 0x6C6 JUMP JUMPDEST DUP1 PUSH1 0x0 NOT DIV DUP3 GT ISZERO PUSH3 0x7BB JUMPI PUSH3 0x7BB PUSH3 0x662 JUMP JUMPDEST MUL SWAP4 SWAP3 POP POP POP JUMP JUMPDEST PUSH1 0x0 PUSH3 0x4F4 DUP4 DUP4 PUSH3 0x70F JUMP JUMPDEST PUSH1 0x0 PUSH1 0x1 DUP3 ADD PUSH3 0x7E6 JUMPI PUSH3 0x7E6 PUSH3 0x662 JUMP JUMPDEST POP PUSH1 0x1 ADD SWAP1 JUMP JUMPDEST PUSH4 0x4E487B71 PUSH1 0xE0 SHL PUSH1 0x0 MSTORE PUSH1 0x12 PUSH1 0x4 MSTORE PUSH1 0x24 PUSH1 0x0 REVERT JUMPDEST PUSH1 0x0 DUP3 PUSH3 0x815 JUMPI PUSH3 0x815 PUSH3 0x7ED JUMP JUMPDEST POP MOD SWAP1 JUMP JUMPDEST PUSH1 0x0 DUP3 PUSH3 0x82C JUMPI PUSH3 0x82C PUSH3 0x7ED JUMP JUMPDEST POP DIV SWAP1 JUMP JUMPDEST PUSH1 0x80 MLOAD PUSH1 0xA0 MLOAD PUSH2 0x12B9 PUSH3 0x8D5 PUSH1 0x0 CODECOPY PUSH1 0x0 DUP2 DUP2 PUSH2 0x27A ADD MSTORE DUP2 DUP2 PUSH2 0x2A7 ADD MSTORE DUP2 DUP2 PUSH2 0x46B ADD MSTORE DUP2 DUP2 PUSH2 0xA65 ADD MSTORE DUP2 DUP2 PUSH2 0xB1A ADD MSTORE DUP2 DUP2 PUSH2 0xBAA ADD MSTORE PUSH2 0xD0E ADD MSTORE PUSH1 0x0 DUP2 DUP2 PUSH2 0x190 ADD MSTORE DUP2 DUP2 PUSH2 0x444 ADD MSTORE DUP2 DUP2 PUSH2 0x4C9 ADD MSTORE DUP2 DUP2 PUSH2 0x56D ADD MSTORE DUP2 DUP2 PUSH2 0x9F3 ADD MSTORE DUP2 DUP2 PUSH2 0xA38 ADD MSTORE DUP2 DUP2 PUSH2 0xAED ADD MSTORE DUP2 DUP2 PUSH2 0xB7D ADD MSTORE DUP2 DUP2 PUSH2 0xC08 ADD MSTORE DUP2 DUP2 PUSH2 0xC99 ADD MSTORE DUP2 DUP2 PUSH2 0xCE1 ADD MSTORE DUP2 DUP2 PUSH2 0xD6C ADD MSTORE PUSH2 0xDFD ADD MSTORE PUSH2 0x12B9 PUSH1 0x0 RETURN INVALID PUSH1 0x80 PUSH1 0x40 MSTORE PUSH1 0x4 CALLDATASIZE LT PUSH2 0x79 JUMPI PUSH1 0x0 CALLDATALOAD PUSH1 0xE0 SHR DUP1 PUSH4 0x9A0FA3C0 GT PUSH2 0x4B JUMPI DUP1 PUSH4 0x9A0FA3C0 EQ PUSH2 0x17E JUMPI DUP1 PUSH4 0xCCA76C5D EQ PUSH2 0x1B2 JUMPI DUP1 PUSH4 0xD88F666B EQ PUSH2 0x1E8 JUMPI DUP1 PUSH4 0xFFC0483D EQ PUSH2 0x268 JUMPI STOP JUMPDEST DUP1 PUSH4 0x4420E486 EQ PUSH2 0x82 JUMPI DUP1 PUSH4 0x554D63C5 EQ PUSH2 0xA2 JUMPI DUP1 PUSH4 0x6F77926B EQ PUSH2 0xCB JUMPI DUP1 PUSH4 0x984DA82E EQ PUSH2 0x130 JUMPI STOP JUMPDEST CALLDATASIZE PUSH2 0x80 JUMPI STOP JUMPDEST STOP JUMPDEST CALLVALUE DUP1 ISZERO PUSH2 0x8E JUMPI PUSH1 0x0 DUP1 REVERT JUMPDEST POP PUSH2 0x80 PUSH2 0x9D CALLDATASIZE PUSH1 0x4 PUSH2 0x1069 JUMP JUMPDEST PUSH2 0x29C JUMP JUMPDEST CALLVALUE DUP1 ISZERO PUSH2 0xAE JUMPI PUSH1 0x0 DUP1 REVERT JUMPDEST POP PUSH2 0xB8 PUSH1 0x2 SLOAD DUP2 JUMP JUMPDEST PUSH1 0x40 MLOAD SWAP1 DUP2 MSTORE PUSH1 0x20 ADD JUMPDEST PUSH1 0x40 MLOAD DUP1 SWAP2 SUB SWAP1 RETURN JUMPDEST CALLVALUE DUP1 ISZERO PUSH2 0xD7 JUMPI PUSH1 0x0 DUP1 REVERT JUMPDEST POP PUSH2 0xEB PUSH2 0xE6 CALLDATASIZE PUSH1 0x4 PUSH2 0x1069 JUMP JUMPDEST PUSH2 0x599 JUMP JUMPDEST PUSH1 0x40 DUP1 MLOAD DUP4 MLOAD DUP2 MSTORE PUSH1 0x20 DUP1 DUP6 ADD MLOAD SWAP1 DUP3 ADD MSTORE DUP4 DUP3 ADD MLOAD ISZERO ISZERO SWAP2 DUP2 ADD SWAP2 SWAP1 SWAP2 MSTORE PUSH1 0x60 DUP1 DUP5 ADD MLOAD SWAP1 DUP3 ADD MSTORE PUSH1 0x80 SWAP3 DUP4 ADD MLOAD ISZERO ISZERO SWAP3 DUP2 ADD SWAP3 SWAP1 SWAP3 MSTORE PUSH1 0xA0 DUP3 ADD MSTORE PUSH1 0xC0 ADD PUSH2 0xC2 JUMP JUMPDEST CALLVALUE DUP1 ISZERO PUSH2 0x13C JUMPI PUSH1 0x0 DUP1 REVERT JUMPDEST POP PUSH2 0x166 PUSH2 0x14B CALLDATASIZE PUSH1 0x4 PUSH2 0x1099 JUMP JUMPDEST PUSH1 0x1 PUSH1 0x20 MSTORE PUSH1 0x0 SWAP1 DUP2 MSTORE PUSH1 0x40 SWAP1 KECCAK256 SLOAD PUSH1 0x1 PUSH1 0x1 PUSH1 0xA0 SHL SUB AND DUP2 JUMP JUMPDEST PUSH1 0x40 MLOAD PUSH1 0x1 PUSH1 0x1 PUSH1 0xA0 SHL SUB SWAP1 SWAP2 AND DUP2 MSTORE PUSH1 0x20 ADD PUSH2 0xC2 JUMP JUMPDEST CALLVALUE DUP1 ISZERO PUSH2 0x18A JUMPI PUSH1 0x0 DUP1 REVERT JUMPDEST POP PUSH2 0xB8 PUSH32 0x0 DUP2 JUMP JUMPDEST CALLVALUE DUP1 ISZERO PUSH2 0x1BE JUMPI PUSH1 0x0 DUP1 REVERT JUMPDEST POP PUSH2 0x166 PUSH2 0x1CD CALLDATASIZE PUSH1 0x4 PUSH2 0x1099 JUMP JUMPDEST PUSH1 0x0 SWAP1 DUP2 MSTORE PUSH1 0x1 PUSH1 0x20 MSTORE PUSH1 0x40 SWAP1 KECCAK256 SLOAD PUSH1 0x1 PUSH1 0x1 PUSH1 0xA0 SHL SUB AND SWAP1 JUMP JUMPDEST CALLVALUE DUP1 ISZERO PUSH2 0x1F4 JUMPI PUSH1 0x0 DUP1 REVERT JUMPDEST POP PUSH2 0x237 PUSH2 0x203 CALLDATASIZE PUSH1 0x4 PUSH2 0x1069 JUMP JUMPDEST PUSH1 0x0 PUSH1 0x20 DUP2 SWAP1 MSTORE SWAP1 DUP2 MSTORE PUSH1 0x40 SWAP1 KECCAK256 DUP1 SLOAD PUSH1 0x1 DUP3 ADD SLOAD PUSH1 0x2 DUP4 ADD SLOAD PUSH1 0x3 DUP5 ADD SLOAD PUSH1 0x4 SWAP1 SWAP5 ADD SLOAD SWAP3 SWAP4 SWAP2 SWAP3 PUSH1 0xFF SWAP2 DUP3 AND SWAP3 SWAP2 AND DUP6 JUMP JUMPDEST PUSH1 0x40 MLOAD PUSH2 0xC2 SWAP6 SWAP5 SWAP4 SWAP3 SWAP2 SWAP1 SWAP5 DUP6 MSTORE PUSH1 0x20 DUP6 ADD SWAP4 SWAP1 SWAP4 MSTORE SWAP1 ISZERO ISZERO PUSH1 0x40 DUP5 ADD MSTORE PUSH1 0x60 DUP4 ADD MSTORE ISZERO ISZERO PUSH1 0x80 DUP3 ADD MSTORE PUSH1 0xA0 ADD SWAP1 JUMP JUMPDEST CALLVALUE DUP1 ISZERO PUSH2 0x274 JUMPI PUSH1 0x0 DUP1 REVERT JUMPDEST POP PUSH2 0x166 PUSH32 0x0 DUP2 JUMP JUMPDEST CALLER PUSH1 0x1 PUSH1 0x1 PUSH1 0xA0 SHL SUB PUSH32 0x0 AND EQ PUSH2 0x332 JUMPI PUSH1 0x40 MLOAD PUSH32 0x8C379A000000000000000000000000000000000000000000000000000000000 DUP2 MSTORE PUSH1 0x20 PUSH1 0x4 DUP3 ADD MSTORE PUSH1 0x10 PUSH1 0x24 DUP3 ADD MSTORE PUSH32 0x6163636573732064656E69656420303200000000000000000000000000000000 PUSH1 0x44 DUP3 ADD MSTORE PUSH1 0x64 ADD PUSH1 0x40 MLOAD DUP1 SWAP2 SUB SWAP1 REVERT JUMPDEST PUSH1 0x0 DUP1 PUSH1 0x0 PUSH2 0x33F PUSH2 0x66E JUMP JUMPDEST PUSH1 0x40 DUP1 MLOAD PUSH1 0xA0 DUP2 ADD DUP3 MSTORE PUSH1 0x2 SLOAD DUP2 MSTORE PUSH1 0x20 DUP2 ADD DUP6 SWAP1 MSTORE PUSH1 0x0 SWAP2 DUP2 ADD DUP3 SWAP1 MSTORE PUSH1 0x60 DUP2 ADD DUP5 SWAP1 MSTORE PUSH1 0x1 PUSH1 0x80 DUP3 ADD MSTORE SWAP4 SWAP7 POP SWAP2 SWAP5 POP SWAP3 POP DUP3 SWAP1 SUB PUSH2 0x391 JUMPI PUSH1 0x1 PUSH1 0x40 DUP3 ADD MSTORE DUP4 ISZERO PUSH2 0x391 JUMPI PUSH2 0x391 DUP5 DUP7 PUSH2 0x950 JUMP JUMPDEST PUSH1 0x1 PUSH1 0x1 PUSH1 0xA0 SHL SUB DUP6 AND PUSH1 0x0 SWAP1 DUP2 MSTORE PUSH1 0x20 DUP2 DUP2 MSTORE PUSH1 0x40 SWAP2 DUP3 SWAP1 KECCAK256 DUP4 MLOAD DUP2 SSTORE SWAP1 DUP4 ADD MLOAD PUSH1 0x1 DUP3 ADD SSTORE SWAP1 DUP3 ADD MLOAD PUSH1 0x2 DUP3 ADD DUP1 SLOAD SWAP2 ISZERO ISZERO PUSH1 0xFF NOT SWAP3 DUP4 AND OR SWAP1 SSTORE PUSH1 0x60 DUP4 ADD MLOAD PUSH1 0x3 DUP4 ADD SSTORE PUSH1 0x80 DUP4 ADD MLOAD PUSH1 0x4 SWAP1 SWAP3 ADD DUP1 SLOAD SWAP3 ISZERO ISZERO SWAP3 SWAP1 SWAP2 AND SWAP2 SWAP1 SWAP2 OR SWAP1 SSTORE PUSH2 0x3FA DUP6 PUSH2 0xEB3 JUMP JUMPDEST PUSH1 0x0 DUP5 DUP2 MSTORE PUSH1 0x1 PUSH1 0x20 MSTORE PUSH1 0x40 SWAP1 DUP2 SWAP1 KECCAK256 SLOAD SWAP1 MLOAD PUSH32 0xDFAC767C00000000000000000000000000000000000000000000000000000000 DUP2 MSTORE PUSH1 0x1 PUSH1 0x1 PUSH1 0xA0 SHL SUB SWAP2 DUP3 AND PUSH1 0x4 DUP3 ADD DUP2 SWAP1 MSTORE PUSH32 0x0 PUSH1 0x24 DUP4 ADD MSTORE SWAP2 PUSH32 0x0 AND SWAP1 PUSH4 0xDFAC767C SWAP1 PUSH1 0x44 ADD PUSH1 0x0 PUSH1 0x40 MLOAD DUP1 DUP4 SUB DUP2 PUSH1 0x0 DUP8 DUP1 EXTCODESIZE ISZERO DUP1 ISZERO PUSH2 0x4AF JUMPI PUSH1 0x0 DUP1 REVERT JUMPDEST POP GAS CALL ISZERO DUP1 ISZERO PUSH2 0x4C3 JUMPI RETURNDATASIZE PUSH1 0x0 DUP1 RETURNDATACOPY RETURNDATASIZE PUSH1 0x0 REVERT JUMPDEST POP POP POP POP PUSH32 0x0 DUP2 PUSH1 0x1 PUSH1 0x1 PUSH1 0xA0 SHL SUB AND DUP8 PUSH1 0x1 PUSH1 0x1 PUSH1 0xA0 SHL SUB AND PUSH32 0xECC93E3681E475770B08D7067A66D2A6E16620B712ED2DAB831114964CA6326A PUSH1 0x40 MLOAD PUSH1 0x40 MLOAD DUP1 SWAP2 SUB SWAP1 LOG4 PUSH2 0x566 PUSH1 0x40 MLOAD DUP1 PUSH1 0x40 ADD PUSH1 0x40 MSTORE DUP1 PUSH1 0x8 DUP2 MSTORE PUSH1 0x20 ADD PUSH32 0x53656E7448616C66000000000000000000000000000000000000000000000000 DUP2 MSTORE POP PUSH2 0xF0A JUMP JUMPDEST PUSH2 0x591 DUP7 DUP3 PUSH32 0x0 PUSH2 0xF7E JUMP JUMPDEST POP POP POP POP POP POP JUMP JUMPDEST PUSH2 0x5CF PUSH1 0x40 MLOAD DUP1 PUSH1 0xA0 ADD PUSH1 0x40 MSTORE DUP1 PUSH1 0x0 DUP2 MSTORE PUSH1 0x20 ADD PUSH1 0x0 DUP2 MSTORE PUSH1 0x20 ADD PUSH1 0x0 ISZERO ISZERO DUP2 MSTORE PUSH1 0x20 ADD PUSH1 0x0 DUP2 MSTORE PUSH1 0x20 ADD PUSH1 0x0 ISZERO ISZERO DUP2 MSTORE POP SWAP1 JUMP JUMPDEST POP PUSH1 0x1 PUSH1 0x1 PUSH1 0xA0 SHL SUB AND PUSH1 0x0 SWAP1 DUP2 MSTORE PUSH1 0x20 DUP2 DUP2 MSTORE PUSH1 0x40 SWAP2 DUP3 SWAP1 KECCAK256 DUP3 MLOAD PUSH1 0xA0 DUP2 ADD DUP5 MSTORE DUP2 SLOAD DUP2 MSTORE PUSH1 0x1 DUP3 ADD SLOAD SWAP3 DUP2 ADD SWAP3 SWAP1 SWAP3 MSTORE PUSH1 0x2 DUP1 DUP3 ADD SLOAD PUSH1 0xFF SWAP1 DUP2 AND ISZERO ISZERO SWAP5 DUP5 ADD SWAP5 SWAP1 SWAP5 MSTORE PUSH1 0x3 DUP3 ADD SLOAD PUSH1 0x60 DUP5 ADD MSTORE PUSH1 0x4 SWAP1 SWAP2 ADD SLOAD SWAP1 SWAP3 AND ISZERO ISZERO PUSH1 0x80 DUP3 ADD MSTORE SWAP1 SLOAD SWAP1 SWAP2 JUMP JUMPDEST PUSH1 0x0 PUSH2 0x641 DUP3 DUP5 PUSH2 0x10C8 JUMP JUMPDEST SWAP1 POP JUMPDEST SWAP3 SWAP2 POP POP JUMP JUMPDEST PUSH1 0x0 PUSH2 0x641 DUP3 DUP5 PUSH2 0x10DB JUMP JUMPDEST PUSH1 0x0 PUSH2 0x641 DUP3 DUP5 PUSH2 0x1104 JUMP JUMPDEST PUSH1 0x0 PUSH2 0x641 DUP3 DUP5 PUSH2 0x1118 JUMP JUMPDEST PUSH1 0x0 DUP1 PUSH1 0x0 DUP1 PUSH2 0x88F PUSH2 0x68C PUSH1 0x2 DUP1 SLOAD PUSH2 0x635 SWAP1 SWAP2 SWAP1 PUSH4 0xFFFFFFFF AND JUMP JUMPDEST PUSH1 0x40 DUP1 MLOAD PUSH32 0xF8F9CBFAE6CC78FBEFE7CDC3A1793DFCF4F0E8BBD8CEC470B6A28A7A5A3E1EFD DUP2 MSTORE PUSH32 0xF5ECF1B3E9DEBC68E1D9CFABC5997135BFB7A7A3938B7B606B5B4B3F2F1F0FFE PUSH1 0x20 DUP3 ADD MSTORE PUSH32 0xF6E4ED9FF2D6B458EADCDF97BD91692DE2D4DA8FD2D0AC50C6AE9A8272523616 DUP2 DUP4 ADD MSTORE PUSH32 0xC8C0B887B0A8A4489C948C7F847C6125746C645C544C444038302820181008FF PUSH1 0x60 DUP3 ADD MSTORE PUSH32 0xF7CAE577EEC2A03CF3BAD76FB589591DEBB2DD67E0AA9834BEA6925F6A4A2E0E PUSH1 0x80 DUP3 ADD MSTORE PUSH32 0xE39ED557DB96902CD38ED14FAD815115C786AF479B7E83247363534337271707 PUSH1 0xA0 DUP3 ADD MSTORE PUSH32 0xC976C13BB96E881CB166A933A55E490D9D56952B8D4E801485467D2362422606 PUSH1 0xC0 DUP3 ADD MSTORE PUSH32 0x753A6D1B65325D0C552A4D1345224105391A310B29122104190A110309020100 PUSH1 0xE0 DUP3 ADD MSTORE PUSH2 0x100 DUP1 DUP3 ADD SWAP1 SWAP3 MSTORE PUSH32 0x100000000000000000000000000000000000000000000000000000000000000 PUSH1 0x1 PUSH17 0x100000000000000000000000000000000 PUSH9 0x10000000000000000 PUSH5 0x100000000 PUSH3 0x10000 PUSH1 0x10 PUSH1 0x4 PUSH1 0x2 PUSH1 0x0 NOT DUP13 ADD SWAP1 DUP2 DIV OR SWAP1 DUP2 DIV OR SWAP1 DUP2 DIV OR DUP9 DUP2 DIV OR SWAP1 DUP2 DIV OR SWAP1 DUP2 DIV OR SWAP1 DUP2 DIV OR SWAP1 DUP2 DIV OR ADD PUSH31 0x818283848586878898A8B8C8D8E8F929395969799A9B9D9E9FAAEB6BEDEEFF MUL DUP2 SWAP1 DIV PUSH1 0xFF SUB SWAP1 SWAP2 ADD MLOAD DIV PUSH32 0x8000000000000000000000000000000000000000000000000000000000000000 SWAP1 SWAP3 GT MUL ADD SWAP1 JUMP JUMPDEST SWAP1 POP PUSH1 0x0 PUSH1 0x2 DUP3 LT ISZERO PUSH2 0x8A4 JUMPI POP PUSH1 0x0 PUSH2 0x8BC JUMP JUMPDEST PUSH2 0x8B9 PUSH1 0x0 PUSH2 0x8B4 DUP5 PUSH1 0x2 PUSH2 0x64A JUMP JUMPDEST PUSH2 0x1008 JUMP JUMPDEST SWAP1 POP JUMPDEST PUSH1 0x0 PUSH2 0x8CD DUP2 PUSH2 0x8B4 DUP6 PUSH1 0x1 PUSH2 0x64A JUMP JUMPDEST SWAP1 POP PUSH1 0x0 DUP2 PUSH1 0x2 SLOAD PUSH2 0x8DF SWAP2 SWAP1 PUSH2 0x10DB JUMP JUMPDEST PUSH2 0x8EA SWAP1 PUSH1 0x1 PUSH2 0x10C8 JUMP JUMPDEST SWAP1 POP PUSH1 0x0 PUSH2 0x8F9 DUP3 PUSH1 0x2 PUSH2 0x656 JUMP JUMPDEST SWAP1 POP PUSH1 0x0 PUSH2 0x908 DUP4 PUSH1 0x2 PUSH2 0x662 JUMP JUMPDEST SWAP1 POP PUSH1 0x1 DUP2 LT ISZERO PUSH2 0x91B JUMPI POP PUSH1 0x1 PUSH2 0x928 JUMP JUMPDEST PUSH2 0x925 DUP2 DUP4 PUSH2 0x635 JUMP JUMPDEST SWAP1 POP JUMPDEST PUSH1 0x0 PUSH2 0x93F PUSH2 0x938 DUP4 PUSH1 0x1 PUSH2 0x64A JUMP JUMPDEST DUP8 SWAP1 PUSH2 0x635 JUMP JUMPDEST SWAP11 SWAP7 SWAP10 POP SWAP2 SWAP8 POP SWAP5 SWAP6 POP POP POP POP POP POP JUMP JUMPDEST PUSH1 0x0 DUP3 DUP2 MSTORE PUSH1 0x1 PUSH1 0x20 DUP2 DUP2 MSTORE PUSH1 0x40 DUP1 DUP5 KECCAK256 SLOAD PUSH1 0x1 PUSH1 0x1 PUSH1 0xA0 SHL SUB AND DUP1 DUP6 MSTORE DUP5 DUP4 MSTORE SWAP4 DUP2 SWAP1 KECCAK256 DUP2 MLOAD PUSH1 0xA0 DUP2 ADD DUP4 MSTORE DUP2 SLOAD DUP2 MSTORE SWAP4 DUP2 ADD SLOAD SWAP3 DUP5 ADD SWAP3 SWAP1 SWAP3 MSTORE PUSH1 0x2 DUP1 DUP4 ADD SLOAD PUSH1 0xFF SWAP1 DUP2 AND ISZERO ISZERO SWAP3 DUP6 ADD SWAP3 SWAP1 SWAP3 MSTORE PUSH1 0x3 DUP4 ADD SLOAD PUSH1 0x60 DUP6 ADD MSTORE PUSH1 0x4 SWAP1 SWAP3 ADD SLOAD AND ISZERO ISZERO PUSH1 0x80 DUP4 ADD MSTORE JUMPDEST PUSH1 0x5 DUP2 GT PUSH2 0xEAC JUMPI DUP2 PUSH1 0x40 ADD MLOAD ISZERO PUSH2 0xEAC JUMPI PUSH1 0x20 DUP1 DUP4 ADD MLOAD PUSH1 0x0 SWAP1 DUP2 MSTORE PUSH1 0x1 SWAP1 SWAP2 MSTORE PUSH1 0x40 SWAP1 KECCAK256 SLOAD PUSH1 0x1 PUSH1 0x1 PUSH1 0xA0 SHL SUB AND PUSH1 0x3 DUP3 GT PUSH2 0xCC2 JUMPI PUSH32 0x0 PUSH1 0x0 SUB PUSH2 0xAC6 JUMPI PUSH1 0x40 MLOAD PUSH4 0x2E525D3 PUSH1 0xE1 SHL DUP2 MSTORE PUSH1 0x1 PUSH1 0x1 PUSH1 0xA0 SHL SUB DUP3 DUP2 AND PUSH1 0x4 DUP4 ADD MSTORE PUSH32 0x0 PUSH1 0x24 DUP4 ADD MSTORE PUSH1 0x0 PUSH1 0x44 DUP4 ADD MSTORE PUSH32 0x0 AND SWAP1 PUSH4 0x5CA4BA6 SWAP1 PUSH1 0x64 ADD PUSH1 0x0 PUSH1 0x40 MLOAD DUP1 DUP4 SUB DUP2 PUSH1 0x0 DUP8 DUP1 EXTCODESIZE ISZERO DUP1 ISZERO PUSH2 0xAA9 JUMPI PUSH1 0x0 DUP1 REVERT JUMPDEST POP GAS CALL ISZERO DUP1 ISZERO PUSH2 0xABD JUMPI RETURNDATASIZE PUSH1 0x0 DUP1 RETURNDATACOPY RETURNDATASIZE PUSH1 0x0 REVERT JUMPDEST POP POP POP POP PUSH2 0xE2F JUMP JUMPDEST DUP2 PUSH1 0x2 SUB PUSH2 0xB5E JUMPI PUSH1 0x40 MLOAD PUSH4 0x2E525D3 PUSH1 0xE1 SHL DUP2 MSTORE PUSH1 0x1 PUSH1 0x1 PUSH1 0xA0 SHL SUB DUP3 DUP2 AND PUSH1 0x4 DUP4 ADD MSTORE PUSH32 0x0 PUSH1 0x24 DUP4 ADD MSTORE PUSH1 0x2 PUSH1 0x44 DUP4 ADD MSTORE PUSH32 0x0 AND SWAP1 PUSH4 0x5CA4BA6 SWAP1 PUSH1 0x64 ADD PUSH1 0x0 PUSH1 0x40 MLOAD DUP1 DUP4 SUB DUP2 PUSH1 0x0 DUP8 DUP1 EXTCODESIZE ISZERO DUP1 ISZERO PUSH2 0xAA9 JUMPI PUSH1 0x0 DUP1 REVERT JUMPDEST PUSH1 0x40 MLOAD PUSH4 0x2E525D3 PUSH1 0xE1 SHL DUP2 MSTORE PUSH1 0x1 PUSH1 0x1 PUSH1 0xA0 SHL SUB DUP3 DUP2 AND PUSH1 0x4 DUP4 ADD MSTORE PUSH32 0x0 PUSH1 0x24 DUP4 ADD MSTORE PUSH1 0x1 PUSH1 0x44 DUP4 ADD MSTORE PUSH32 0x0 AND SWAP1 PUSH4 0x5CA4BA6 SWAP1 PUSH1 0x64 ADD PUSH1 0x0 PUSH1 0x40 MLOAD DUP1 DUP4 SUB DUP2 PUSH1 0x0 DUP8 DUP1 EXTCODESIZE ISZERO DUP1 ISZERO PUSH2 0xBEE JUMPI PUSH1 0x0 DUP1 REVERT JUMPDEST POP GAS CALL ISZERO DUP1 ISZERO PUSH2 0xC02 JUMPI RETURNDATASIZE PUSH1 0x0 DUP1 RETURNDATACOPY RETURNDATASIZE PUSH1 0x0 REVERT JUMPDEST POP POP POP POP PUSH32 0x0 DUP2 PUSH1 0x1 PUSH1 0x1 PUSH1 0xA0 SHL SUB AND DUP7 PUSH1 0x1 PUSH1 0x1 PUSH1 0xA0 SHL SUB AND PUSH32 0x83F8DEF74523ADC5A40763E69A11FE897A82317BBD31A43BCE33F3F140BFE0D PUSH1 0x40 MLOAD PUSH1 0x40 MLOAD DUP1 SWAP2 SUB SWAP1 LOG4 PUSH2 0xC92 PUSH1 0x40 MLOAD DUP1 PUSH1 0x40 ADD PUSH1 0x40 MSTORE DUP1 PUSH1 0xA DUP2 MSTORE PUSH1 0x20 ADD PUSH10 0x53656E74436C61696D73 PUSH1 0xB0 SHL DUP2 MSTORE POP PUSH2 0xF0A JUMP JUMPDEST PUSH2 0xCBD DUP6 DUP3 PUSH32 0x0 PUSH2 0xF7E JUMP JUMPDEST PUSH2 0xE2F JUMP JUMPDEST PUSH1 0x40 MLOAD PUSH4 0x2E525D3 PUSH1 0xE1 SHL DUP2 MSTORE PUSH1 0x1 PUSH1 0x1 PUSH1 0xA0 SHL SUB DUP3 DUP2 AND PUSH1 0x4 DUP4 ADD MSTORE PUSH32 0x0 PUSH1 0x24 DUP4 ADD MSTORE PUSH1 0x1 PUSH1 0x44 DUP4 ADD MSTORE PUSH32 0x0 AND SWAP1 PUSH4 0x5CA4BA6 SWAP1 PUSH1 0x64 ADD PUSH1 0x0 PUSH1 0x40 MLOAD DUP1 DUP4 SUB DUP2 PUSH1 0x0 DUP8 DUP1 EXTCODESIZE ISZERO DUP1 ISZERO PUSH2 0xD52 JUMPI PUSH1 0x0 DUP1 REVERT JUMPDEST POP GAS CALL ISZERO DUP1 ISZERO PUSH2 0xD66 JUMPI RETURNDATASIZE PUSH1 0x0 DUP1 RETURNDATACOPY RETURNDATASIZE PUSH1 0x0 REVERT JUMPDEST POP POP POP POP PUSH32 0x0 DUP2 PUSH1 0x1 PUSH1 0x1 PUSH1 0xA0 SHL SUB AND DUP7 PUSH1 0x1 PUSH1 0x1 PUSH1 0xA0 SHL SUB AND PUSH32 0x83F8DEF74523ADC5A40763E69A11FE897A82317BBD31A43BCE33F3F140BFE0D PUSH1 0x40 MLOAD PUSH1 0x40 MLOAD DUP1 SWAP2 SUB SWAP1 LOG4 PUSH2 0xDF6 PUSH1 0x40 MLOAD DUP1 PUSH1 0x40 ADD PUSH1 0x40 MSTORE DUP1 PUSH1 0xA DUP2 MSTORE PUSH1 0x20 ADD PUSH10 0x53656E74436C61696D73 PUSH1 0xB0 SHL DUP2 MSTORE POP PUSH2 0xF0A JUMP JUMPDEST PUSH2 0xE21 DUP6 DUP3 PUSH32 0x0 PUSH2 0xF7E JUMP JUMPDEST DUP2 PUSH1 0x5 SUB PUSH2 0xE2F JUMPI POP PUSH2 0xEAC JUMP JUMPDEST POP PUSH1 0x20 SWAP2 DUP3 ADD MLOAD PUSH1 0x0 SWAP1 DUP2 MSTORE PUSH1 0x1 DUP1 DUP5 MSTORE PUSH1 0x40 DUP1 DUP4 KECCAK256 SLOAD PUSH1 0x1 PUSH1 0x1 PUSH1 0xA0 SHL SUB AND DUP4 MSTORE DUP3 DUP6 MSTORE SWAP2 DUP3 SWAP1 KECCAK256 DUP3 MLOAD PUSH1 0xA0 DUP2 ADD DUP5 MSTORE DUP2 SLOAD DUP2 MSTORE SWAP2 DUP2 ADD SLOAD SWAP5 DUP3 ADD SWAP5 SWAP1 SWAP5 MSTORE PUSH1 0x2 DUP5 ADD SLOAD PUSH1 0xFF SWAP1 DUP2 AND ISZERO ISZERO SWAP3 DUP3 ADD SWAP3 SWAP1 SWAP3 MSTORE PUSH1 0x3 DUP5 ADD SLOAD PUSH1 0x60 DUP3 ADD MSTORE PUSH1 0x4 SWAP1 SWAP4 ADD SLOAD AND ISZERO ISZERO PUSH1 0x80 DUP4 ADD MSTORE DUP1 PUSH2 0xEA4 DUP2 PUSH2 0x112C JUMP JUMPDEST SWAP2 POP POP PUSH2 0x9B9 JUMP JUMPDEST POP POP POP POP POP JUMP JUMPDEST PUSH1 0x2 DUP1 SLOAD PUSH1 0x0 SWAP1 DUP2 MSTORE PUSH1 0x1 PUSH1 0x20 DUP2 SWAP1 MSTORE PUSH1 0x40 SWAP1 SWAP2 KECCAK256 DUP1 SLOAD PUSH32 0xFFFFFFFFFFFFFFFFFFFFFFFF0000000000000000000000000000000000000000 AND PUSH1 0x1 PUSH1 0x1 PUSH1 0xA0 SHL SUB DUP6 AND OR SWAP1 SSTORE SWAP1 SLOAD PUSH2 0xF04 SWAP2 PUSH2 0x635 JUMP JUMPDEST PUSH1 0x2 SSTORE POP JUMP JUMPDEST PUSH2 0xF7B DUP2 PUSH1 0x40 MLOAD PUSH1 0x24 ADD PUSH2 0xF1E SWAP2 SWAP1 PUSH2 0x1145 JUMP JUMPDEST PUSH1 0x40 DUP1 MLOAD PUSH1 0x1F NOT DUP2 DUP5 SUB ADD DUP2 MSTORE SWAP2 SWAP1 MSTORE PUSH1 0x20 DUP2 ADD DUP1 MLOAD PUSH28 0xFFFFFFFFFFFFFFFFFFFFFFFFFFFFFFFFFFFFFFFFFFFFFFFFFFFFFFFF AND PUSH32 0x41304FAC00000000000000000000000000000000000000000000000000000000 OR SWAP1 MSTORE PUSH2 0x1044 JUMP JUMPDEST POP JUMP JUMPDEST PUSH1 0x40 MLOAD PUSH1 0x1 PUSH1 0x1 PUSH1 0xA0 SHL SUB DUP1 DUP6 AND PUSH1 0x24 DUP4 ADD MSTORE DUP4 AND PUSH1 0x44 DUP3 ADD MSTORE PUSH1 0x64 DUP2 ADD DUP3 SWAP1 MSTORE PUSH2 0x1003 SWAP1 PUSH1 0x84 ADD PUSH1 0x40 DUP1 MLOAD PUSH1 0x1F NOT DUP2 DUP5 SUB ADD DUP2 MSTORE SWAP2 SWAP1 MSTORE PUSH1 0x20 DUP2 ADD DUP1 MLOAD PUSH28 0xFFFFFFFFFFFFFFFFFFFFFFFFFFFFFFFFFFFFFFFFFFFFFFFFFFFFFFFF AND PUSH32 0x17FE618500000000000000000000000000000000000000000000000000000000 OR SWAP1 MSTORE PUSH2 0x1044 JUMP JUMPDEST POP POP POP JUMP JUMPDEST PUSH1 0x0 DUP3 JUMPDEST DUP3 DUP2 LT ISZERO PUSH2 0x103D JUMPI PUSH2 0x101F DUP2 PUSH1 0x2 PUSH2 0x1277 JUMP JUMPDEST PUSH2 0x1029 SWAP1 DUP4 PUSH2 0x10C8 JUMP JUMPDEST SWAP2 POP DUP1 PUSH2 0x1035 DUP2 PUSH2 0x112C JUMP JUMPDEST SWAP2 POP POP PUSH2 0x100C JUMP JUMPDEST POP SWAP3 SWAP2 POP POP JUMP JUMPDEST PUSH2 0xF7B DUP2 PUSH1 0x0 PUSH11 0x636F6E736F6C652E6C6F67 SWAP1 POP PUSH1 0x0 DUP1 DUP4 MLOAD PUSH1 0x20 DUP6 ADD DUP5 GAS STATICCALL POP POP POP JUMP JUMPDEST PUSH1 0x0 PUSH1 0x20 DUP3 DUP5 SUB SLT ISZERO PUSH2 0x107B JUMPI PUSH1 0x0 DUP1 REVERT JUMPDEST DUP2 CALLDATALOAD PUSH1 0x1 PUSH1 0x1 PUSH1 0xA0 SHL SUB DUP2 AND DUP2 EQ PUSH2 0x1092 JUMPI PUSH1 0x0 DUP1 REVERT JUMPDEST SWAP4 SWAP3 POP POP POP JUMP JUMPDEST PUSH1 0x0 PUSH1 0x20 DUP3 DUP5 SUB SLT ISZERO PUSH2 0x10AB JUMPI PUSH1 0x0 DUP1 REVERT JUMPDEST POP CALLDATALOAD SWAP2 SWAP1 POP JUMP JUMPDEST PUSH4 0x4E487B71 PUSH1 0xE0 SHL PUSH1 0x0 MSTORE PUSH1 0x11 PUSH1 0x4 MSTORE PUSH1 0x24 PUSH1 0x0 REVERT JUMPDEST DUP1 DUP3 ADD DUP1 DUP3 GT ISZERO PUSH2 0x644 JUMPI PUSH2 0x644 PUSH2 0x10B2 JUMP JUMPDEST DUP2 DUP2 SUB DUP2 DUP2 GT ISZERO PUSH2 0x644 JUMPI PUSH2 0x644 PUSH2 0x10B2 JUMP JUMPDEST PUSH4 0x4E487B71 PUSH1 0xE0 SHL PUSH1 0x0 MSTORE PUSH1 0x12 PUSH1 0x4 MSTORE PUSH1 0x24 PUSH1 0x0 REVERT JUMPDEST PUSH1 0x0 DUP3 PUSH2 0x1113 JUMPI PUSH2 0x1113 PUSH2 0x10EE JUMP JUMPDEST POP MOD SWAP1 JUMP JUMPDEST PUSH1 0x0 DUP3 PUSH2 0x1127 JUMPI PUSH2 0x1127 PUSH2 0x10EE JUMP JUMPDEST POP DIV SWAP1 JUMP JUMPDEST PUSH1 0x0 PUSH1 0x1 DUP3 ADD PUSH2 0x113E JUMPI PUSH2 0x113E PUSH2 0x10B2 JUMP JUMPDEST POP PUSH1 0x1 ADD SWAP1 JUMP JUMPDEST PUSH1 0x0 PUSH1 0x20 DUP1 DUP4 MSTORE DUP4 MLOAD DUP1 DUP3 DUP6 ADD MSTORE PUSH1 0x0 JUMPDEST DUP2 DUP2 LT ISZERO PUSH2 0x1172 JUMPI DUP6 DUP2 ADD DUP4 ADD MLOAD DUP6 DUP3 ADD PUSH1 0x40 ADD MSTORE DUP3 ADD PUSH2 0x1156 JUMP JUMPDEST POP PUSH1 0x0 PUSH1 0x40 DUP3 DUP7 ADD ADD MSTORE PUSH1 0x40 PUSH1 0x1F NOT PUSH1 0x1F DUP4 ADD AND DUP6 ADD ADD SWAP3 POP POP POP SWAP3 SWAP2 POP POP JUMP JUMPDEST PUSH1 0x1 DUP2 DUP2 JUMPDEST DUP1 DUP6 GT ISZERO PUSH2 0x11CE JUMPI DUP2 PUSH1 0x0 NOT DIV DUP3 GT ISZERO PUSH2 0x11B4 JUMPI PUSH2 0x11B4 PUSH2 0x10B2 JUMP JUMPDEST DUP1 DUP6 AND ISZERO PUSH2 0x11C1 JUMPI SWAP2 DUP2 MUL SWAP2 JUMPDEST SWAP4 DUP5 SHR SWAP4 SWAP1 DUP1 MUL SWAP1 PUSH2 0x1198 JUMP JUMPDEST POP SWAP3 POP SWAP3 SWAP1 POP JUMP JUMPDEST PUSH1 0x0 DUP3 PUSH2 0x11E5 JUMPI POP PUSH1 0x1 PUSH2 0x644 JUMP JUMPDEST DUP2 PUSH2 0x11F2 JUMPI POP PUSH1 0x0 PUSH2 0x644 JUMP JUMPDEST DUP2 PUSH1 0x1 DUP2 EQ PUSH2 0x1208 JUMPI PUSH1 0x2 DUP2 EQ PUSH2 0x1212 JUMPI PUSH2 0x122E JUMP JUMPDEST PUSH1 0x1 SWAP2 POP POP PUSH2 0x644 JUMP JUMPDEST PUSH1 0xFF DUP5 GT ISZERO PUSH2 0x1223 JUMPI PUSH2 0x1223 PUSH2 0x10B2 JUMP JUMPDEST POP POP PUSH1 0x1 DUP3 SHL PUSH2 0x644 JUMP JUMPDEST POP PUSH1 0x20 DUP4 LT PUSH2 0x133 DUP4 LT AND PUSH1 0x4E DUP5 LT PUSH1 0xB DUP5 LT AND OR ISZERO PUSH2 0x1251 JUMPI POP DUP2 DUP2 EXP PUSH2 0x644 JUMP JUMPDEST PUSH2 0x125B DUP4 DUP4 PUSH2 0x1193 JUMP JUMPDEST DUP1 PUSH1 0x0 NOT DIV DUP3 GT ISZERO PUSH2 0x126F JUMPI PUSH2 0x126F PUSH2 0x10B2 JUMP JUMPDEST MUL SWAP4 SWAP3 POP POP POP JUMP JUMPDEST PUSH1 0x0 PUSH2 0x641 DUP4 DUP4 PUSH2 0x11D6 JUMP INVALID LOG2 PUSH5 0x6970667358 0x22 SLT KECCAK256 DELEGATECALL 0x2E 0xEF 0xCC 0xB5 0xBC 0xD7 ORIGIN 0xB4 0xD3 CREATE2 CHAINID PUSH6 0xF1FB33507E99 PUSH23 0xB6ED058C747D58FAB2C81E7864736F6C63430008110033 "},"methodIdentifiers":{"Addresses(address)":"d88f666b","CoreAddress()":"ffc0483d","Indices(uint256)":"984da82e","IndicesTotal()":"554d63c5","getUser(address)":"6f77926b","getUserAddressByIndex(uint256)":"cca76c5d","matrixIndex()":"9a0fa3c0","register(address)":"4420e486"}}}}}