{
  "contracts/MatrixTemplate.sol": {
    "MatrixTemplate": {
      "abi": [
        {
          "inputs": [
            {
              "internalType": "uint256",
              "name": "_index",
              "type": "uint256"
            },
            {
              "internalType": "address",
              "name": "_coreAddress",
              "type": "address"
            },
            {
              "internalType": "address[6]",
              "name": "_sixFounders",
              "type": "address[6]"
            }
          ],
          "stateMutability": "nonpayable",
          "type": "constructor"
        },
        {
          "anonymous": false,
          "inputs": [
            {
              "indexed": true,
              "internalType": "address",
              "name": "sender",
              "type": "address"
            },
            {
              "indexed": true,
              "internalType": "address",
              "name": "receiver",
              "type": "address"
            },
            {
              "indexed": true,
              "internalType": "uint256",
              "name": "matrixIndex",
              "type": "uint256"
            }
          ],
          "name": "SentHalf",
          "type": "event"
        },
        {
          "stateMutability": "payable",
          "type": "fallback"
        },
        {
          "inputs": [
            {
              "internalType": "address",
              "name": "",
              "type": "address"
            }
          ],
          "name": "Addresses",
          "outputs": [
            {
              "internalType": "uint256",
              "name": "index",
              "type": "uint256"
            },
            {
              "internalType": "uint256",
              "name": "parent",
              "type": "uint256"
            },
            {
              "internalType": "bool",
              "name": "isRight",
              "type": "bool"
            },
            {
              "internalType": "uint256",
              "name": "plateau",
              "type": "uint256"
            },
            {
              "internalType": "bool",
              "name": "isValue",
              "type": "bool"
            }
          ],
          "stateMutability": "view",
          "type": "function"
        },
        {
          "inputs": [],
          "name": "CoreAddress",
          "outputs": [
            {
              "internalType": "address",
              "name": "",
              "type": "address"
            }
          ],
          "stateMutability": "view",
          "type": "function"
        },
        {
          "inputs": [
            {
              "internalType": "uint256",
              "name": "",
              "type": "uint256"
            }
          ],
          "name": "Indices",
          "outputs": [
            {
              "internalType": "address",
              "name": "",
              "type": "address"
            }
          ],
          "stateMutability": "view",
          "type": "function"
        },
        {
          "inputs": [],
          "name": "IndicesTotal",
          "outputs": [
            {
              "internalType": "uint256",
              "name": "",
              "type": "uint256"
            }
          ],
          "stateMutability": "view",
          "type": "function"
        },
        {
          "inputs": [
            {
              "internalType": "address",
              "name": "_wallet",
              "type": "address"
            }
          ],
          "name": "getUser",
          "outputs": [
            {
              "components": [
                {
                  "internalType": "uint256",
                  "name": "index",
                  "type": "uint256"
                },
                {
                  "internalType": "uint256",
                  "name": "parent",
                  "type": "uint256"
                },
                {
                  "internalType": "bool",
                  "name": "isRight",
                  "type": "bool"
                },
                {
                  "internalType": "uint256",
                  "name": "plateau",
                  "type": "uint256"
                },
                {
                  "internalType": "bool",
                  "name": "isValue",
                  "type": "bool"
                }
              ],
              "internalType": "struct MatrixTemplate.User",
              "name": "user",
              "type": "tuple"
            },
            {
              "internalType": "uint256",
              "name": "total",
              "type": "uint256"
            }
          ],
          "stateMutability": "view",
          "type": "function"
        },
        {
          "inputs": [
            {
              "internalType": "uint256",
              "name": "_index",
              "type": "uint256"
            }
          ],
          "name": "getUserAddressByIndex",
          "outputs": [
            {
              "internalType": "address",
              "name": "",
              "type": "address"
            }
          ],
          "stateMutability": "view",
          "type": "function"
        },
        {
          "inputs": [],
          "name": "matrixIndex",
          "outputs": [
            {
              "internalType": "uint256",
              "name": "",
              "type": "uint256"
            }
          ],
          "stateMutability": "view",
          "type": "function"
        },
        {
          "inputs": [
            {
              "internalType": "address",
              "name": "_wallet",
              "type": "address"
            }
          ],
          "name": "register",
          "outputs": [],
          "stateMutability": "nonpayable",
          "type": "function"
        },
        {
          "stateMutability": "payable",
          "type": "receive"
        }
      ],
      "evm": {
        "bytecode": {
          "linkReferences": {},
          "object": "60c06040523480156200001157600080fd5b50604051620017db380380620017db83398101604081905262000034916200059e565b60005b60068160ff161015620001ac576000808062000052620001c6565b6040805160a0810182526002548152602081018590526000918101829052606081018490526001608082015293965091945092508290036200009657600160408201525b80600080888860ff1660068110620000b257620000b26200064c565b602090810291909101516001600160a01b031682528181019290925260409081016000208351815591830151600183015582015160028201805491151560ff199283161790556060830151600383015560809092015160049091018054911515919092161790558560ff8616600681106200013157620001316200064c565b6020020151600160008760ff16815260200190815260200160002060006101000a8154816001600160a01b0302191690836001600160a01b031602179055506200018d6001600254620004e660201b620005cb1790919060201c565b60025550839250620001a3915082905062000678565b91505062000037565b50506080919091526001600160a01b031660a05262000831565b600080600080620003aa620001ec60028054620004e660201b620005cb1790919060201c565b604080517ff8f9cbfae6cc78fbefe7cdc3a1793dfcf4f0e8bbd8cec470b6a28a7a5a3e1efd81527ff5ecf1b3e9debc68e1d9cfabc5997135bfb7a7a3938b7b606b5b4b3f2f1f0ffe60208201527ff6e4ed9ff2d6b458eadcdf97bd91692de2d4da8fd2d0ac50c6ae9a8272523616818301527fc8c0b887b0a8a4489c948c7f847c6125746c645c544c444038302820181008ff60608201527ff7cae577eec2a03cf3bad76fb589591debb2dd67e0aa9834bea6925f6a4a2e0e60808201527fe39ed557db96902cd38ed14fad815115c786af479b7e8324736353433727170760a08201527fc976c13bb96e881cb166a933a55e490d9d56952b8d4e801485467d236242260660c08201527f753a6d1b65325d0c552a4d1345224105391a310b29122104190a11030902010060e0820152610100808201909252600160f81b6001600160801b68010000000000000000640100000000620100006010600460026000198c019081041790810417908104178881041790810417908104179081041790810417017e818283848586878898a8b8c8d8e8f929395969799a9b9d9e9faaeb6bedeeff0281900460ff039091015104600160ff1b909211020190565b905060006002821015620003c157506000620003eb565b620003e86000620003e2600285620004fd60201b620005e01790919060201c565b6200050b565b90505b60006200040e6000620003e2600186620004fd60201b620005e01790919060201c565b90506000816002546200042291906200069a565b6200042f906001620006b0565b905060006200044e6002836200054f60201b620005ec1790919060201c565b905060006200046d6002846200055d60201b620005f81790919060201c565b9050600181101562000482575060016200049f565b6200049c8282620004e660201b620005cb1790919060201c565b90505b6000620004d5620004c0600184620004fd60201b620005e01790919060201c565b87620004e660201b620005cb1790919060201c565b9a9699509197509495505050505050565b6000620004f48284620006b0565b90505b92915050565b6000620004f482846200069a565b6000825b82811015620005485762000525816002620007c3565b620005319083620006b0565b9150806200053f81620007d1565b9150506200050f565b5092915050565b6000620004f4828462000803565b6000620004f482846200081a565b80516001600160a01b03811681146200058357600080fd5b919050565b634e487b7160e01b600052604160045260246000fd5b6000806000610100808587031215620005b657600080fd5b845193506020620005c98187016200056b565b935086605f870112620005db57600080fd5b60405160c081016001600160401b038111828210171562000600576200060062000588565b6040529186019180888411156200061657600080fd5b604088015b848110156200063d576200062f816200056b565b82529083019083016200061b565b50508093505050509250925092565b634e487b7160e01b600052603260045260246000fd5b634e487b7160e01b600052601160045260246000fd5b600060ff821660ff810362000691576200069162000662565b60010192915050565b81810381811115620004f757620004f762000662565b80820180821115620004f757620004f762000662565b600181815b8085111562000707578160001904821115620006eb57620006eb62000662565b80851615620006f957918102915b93841c9390800290620006cb565b509250929050565b6000826200072057506001620004f7565b816200072f57506000620004f7565b8160018114620007485760028114620007535762000773565b6001915050620004f7565b60ff84111562000767576200076762000662565b50506001821b620004f7565b5060208310610133831016604e8410600b841016171562000798575081810a620004f7565b620007a48383620006c6565b8060001904821115620007bb57620007bb62000662565b029392505050565b6000620004f483836200070f565b600060018201620007e657620007e662000662565b5060010190565b634e487b7160e01b600052601260045260246000fd5b600082620008155762000815620007ed565b500690565b6000826200082c576200082c620007ed565b500490565b60805160a051610f29620008b26000396000818161027a015281816102a70152818161046a015281816109fb01528181610ab101528181610b2c0152610ba701526000818161019001528181610443015281816104c801528181610989015281816109ce01528181610a8401528181610aff0152610b7a0152610f296000f3fe6080604052600436106100795760003560e01c80639a0fa3c01161004b5780639a0fa3c01461017e578063cca76c5d146101b2578063d88f666b146101e8578063ffc0483d1461026857005b80634420e48614610082578063554d63c5146100a25780636f77926b146100cb578063984da82e1461013057005b3661008057005b005b34801561008e57600080fd5b5061008061009d366004610d27565b61029c565b3480156100ae57600080fd5b506100b860025481565b6040519081526020015b60405180910390f35b3480156100d757600080fd5b506100eb6100e6366004610d27565b61052f565b604080518351815260208085015190820152838201511515918101919091526060808401519082015260809283015115159281019290925260a082015260c0016100c2565b34801561013c57600080fd5b5061016661014b366004610d57565b6001602052600090815260409020546001600160a01b031681565b6040516001600160a01b0390911681526020016100c2565b34801561018a57600080fd5b506100b87f000000000000000000000000000000000000000000000000000000000000000081565b3480156101be57600080fd5b506101666101cd366004610d57565b6000908152600160205260409020546001600160a01b031690565b3480156101f457600080fd5b50610237610203366004610d27565b600060208190529081526040902080546001820154600283015460038401546004909401549293919260ff91821692911685565b6040516100c29594939291909485526020850193909352901515604084015260608301521515608082015260a00190565b34801561027457600080fd5b506101667f000000000000000000000000000000000000000000000000000000000000000081565b336001600160a01b037f00000000000000000000000000000000000000000000000000000000000000001614610332576040517f08c379a000000000000000000000000000000000000000000000000000000000815260206004820152601060248201527f6163636573732064656e69656420303200000000000000000000000000000000604482015260640160405180910390fd5b600080600061033f610604565b6040805160a0810182526002548152602081018590526000918101829052606081018490526001608082015293965091945092508290036103905760016040820152831561039057610390846108e6565b6001600160a01b03851660009081526020818152604091829020835181559083015160018201559082015160028201805491151560ff1992831617905560608301516003830155608083015160049092018054921515929091169190911790556103f985610c94565b600084815260016020526040908190205490517fdfac767c0000000000000000000000000000000000000000000000000000000081526001600160a01b03918216600482018190527f00000000000000000000000000000000000000000000000000000000000000006024830152917f0000000000000000000000000000000000000000000000000000000000000000169063dfac767c90604401600060405180830381600087803b1580156104ae57600080fd5b505af11580156104c2573d6000803e3d6000fd5b505050507f0000000000000000000000000000000000000000000000000000000000000000816001600160a01b0316876001600160a01b03167fecc93e3681e475770b08d7067a66d2a6e16620b712ed2dab831114964ca6326a60405160405180910390a4505050505050565b6105656040518060a001604052806000815260200160008152602001600015158152602001600081526020016000151581525090565b506001600160a01b031660009081526020818152604091829020825160a0810184528154815260018201549281019290925260028082015460ff908116151594840194909452600382015460608401526004909101549092161515608082015290549091565b60006105d78284610d86565b90505b92915050565b60006105d78284610d99565b60006105d78284610dc2565b60006105d78284610dd6565b600080600080610825610622600280546105cb90919063ffffffff16565b604080517ff8f9cbfae6cc78fbefe7cdc3a1793dfcf4f0e8bbd8cec470b6a28a7a5a3e1efd81527ff5ecf1b3e9debc68e1d9cfabc5997135bfb7a7a3938b7b606b5b4b3f2f1f0ffe60208201527ff6e4ed9ff2d6b458eadcdf97bd91692de2d4da8fd2d0ac50c6ae9a8272523616818301527fc8c0b887b0a8a4489c948c7f847c6125746c645c544c444038302820181008ff60608201527ff7cae577eec2a03cf3bad76fb589591debb2dd67e0aa9834bea6925f6a4a2e0e60808201527fe39ed557db96902cd38ed14fad815115c786af479b7e8324736353433727170760a08201527fc976c13bb96e881cb166a933a55e490d9d56952b8d4e801485467d236242260660c08201527f753a6d1b65325d0c552a4d1345224105391a310b29122104190a11030902010060e08201526101008082019092527f0100000000000000000000000000000000000000000000000000000000000000600170010000000000000000000000000000000068010000000000000000640100000000620100006010600460026000198c019081041790810417908104178881041790810417908104179081041790810417017e818283848586878898a8b8c8d8e8f929395969799a9b9d9e9faaeb6bedeeff0281900460ff0390910151047f8000000000000000000000000000000000000000000000000000000000000000909211020190565b90506000600282101561083a57506000610852565b61084f600061084a8460026105e0565b610ceb565b90505b60006108638161084a8560016105e0565b90506000816002546108759190610d99565b610880906001610d86565b9050600061088f8260026105ec565b9050600061089e8360026105f8565b905060018110156108b1575060016108be565b6108bb81836105cb565b90505b60006108d56108ce8360016105e0565b87906105cb565b9a9699509197509495505050505050565b6000818152600160208181526040808420546001600160a01b031680855284835293819020815160a08101835281548152938101549284019290925260028083015460ff9081161515928501929092526003830154606085015260049092015416151560808301525b60058111610c8e57816040015115610c8e576020808301516000908152600190915260409020546001600160a01b031660038211610b5b577f0000000000000000000000000000000000000000000000000000000000000000600003610a5d576040516302e525d360e11b81526001600160a01b0382811660048301527f00000000000000000000000000000000000000000000000000000000000000006024830152600060448301527f000000000000000000000000000000000000000000000000000000000000000016906305ca4ba6906064015b600060405180830381600087803b158015610a4057600080fd5b505af1158015610a54573d6000803e3d6000fd5b50505050610c11565b81600203610ae0576040516302e525d360e11b81526001600160a01b0382811660048301527f00000000000000000000000000000000000000000000000000000000000000006024830152600260448301527f000000000000000000000000000000000000000000000000000000000000000016906305ca4ba690606401610a26565b6040516302e525d360e11b81526001600160a01b0382811660048301527f00000000000000000000000000000000000000000000000000000000000000006024830152600160448301527f000000000000000000000000000000000000000000000000000000000000000016906305ca4ba690606401610a26565b6040516302e525d360e11b81526001600160a01b0382811660048301527f00000000000000000000000000000000000000000000000000000000000000006024830152600160448301527f000000000000000000000000000000000000000000000000000000000000000016906305ca4ba690606401600060405180830381600087803b158015610beb57600080fd5b505af1158015610bff573d6000803e3d6000fd5b5050505081600503610c115750610c8e565b50602091820151600090815260018084526040808320546001600160a01b0316835282855291829020825160a081018452815481529181015494820194909452600284015460ff90811615159282019290925260038401546060820152600490930154161515608083015280610c8681610dea565b91505061094f565b50505050565b60028054600090815260016020819052604090912080547fffffffffffffffffffffffff0000000000000000000000000000000000000000166001600160a01b0385161790559054610ce5916105cb565b60025550565b6000825b82811015610d2057610d02816002610ee7565b610d0c9083610d86565b915080610d1881610dea565b915050610cef565b5092915050565b600060208284031215610d3957600080fd5b81356001600160a01b0381168114610d5057600080fd5b9392505050565b600060208284031215610d6957600080fd5b5035919050565b634e487b7160e01b600052601160045260246000fd5b808201808211156105da576105da610d70565b818103818111156105da576105da610d70565b634e487b7160e01b600052601260045260246000fd5b600082610dd157610dd1610dac565b500690565b600082610de557610de5610dac565b500490565b600060018201610dfc57610dfc610d70565b5060010190565b600181815b80851115610e3e578160001904821115610e2457610e24610d70565b80851615610e3157918102915b93841c9390800290610e08565b509250929050565b600082610e55575060016105da565b81610e62575060006105da565b8160018114610e785760028114610e8257610e9e565b60019150506105da565b60ff841115610e9357610e93610d70565b50506001821b6105da565b5060208310610133831016604e8410600b8410161715610ec1575081810a6105da565b610ecb8383610e03565b8060001904821115610edf57610edf610d70565b029392505050565b60006105d78383610e4656fea2646970667358221220177c46b3342fe53ec4e46335de35e9cab5c27ae1a7ccd4eaaba457b40d34f50464736f6c63430008110033",
          "opcodes": "PUSH1 0xC0 PUSH1 0x40 MSTORE CALLVALUE DUP1 ISZERO PUSH3 0x11 JUMPI PUSH1 0x0 DUP1 REVERT JUMPDEST POP PUSH1 0x40 MLOAD PUSH3 0x17DB CODESIZE SUB DUP1 PUSH3 0x17DB DUP4 CODECOPY DUP2 ADD PUSH1 0x40 DUP2 SWAP1 MSTORE PUSH3 0x34 SWAP2 PUSH3 0x59E JUMP JUMPDEST PUSH1 0x0 JUMPDEST PUSH1 0x6 DUP2 PUSH1 0xFF AND LT ISZERO PUSH3 0x1AC JUMPI PUSH1 0x0 DUP1 DUP1 PUSH3 0x52 PUSH3 0x1C6 JUMP JUMPDEST PUSH1 0x40 DUP1 MLOAD PUSH1 0xA0 DUP2 ADD DUP3 MSTORE PUSH1 0x2 SLOAD DUP2 MSTORE PUSH1 0x20 DUP2 ADD DUP6 SWAP1 MSTORE PUSH1 0x0 SWAP2 DUP2 ADD DUP3 SWAP1 MSTORE PUSH1 0x60 DUP2 ADD DUP5 SWAP1 MSTORE PUSH1 0x1 PUSH1 0x80 DUP3 ADD MSTORE SWAP4 SWAP7 POP SWAP2 SWAP5 POP SWAP3 POP DUP3 SWAP1 SUB PUSH3 0x96 JUMPI PUSH1 0x1 PUSH1 0x40 DUP3 ADD MSTORE JUMPDEST DUP1 PUSH1 0x0 DUP1 DUP9 DUP9 PUSH1 0xFF AND PUSH1 0x6 DUP2 LT PUSH3 0xB2 JUMPI PUSH3 0xB2 PUSH3 0x64C JUMP JUMPDEST PUSH1 0x20 SWAP1 DUP2 MUL SWAP2 SWAP1 SWAP2 ADD MLOAD PUSH1 0x1 PUSH1 0x1 PUSH1 0xA0 SHL SUB AND DUP3 MSTORE DUP2 DUP2 ADD SWAP3 SWAP1 SWAP3 MSTORE PUSH1 0x40 SWAP1 DUP2 ADD PUSH1 0x0 KECCAK256 DUP4 MLOAD DUP2 SSTORE SWAP2 DUP4 ADD MLOAD PUSH1 0x1 DUP4 ADD SSTORE DUP3 ADD MLOAD PUSH1 0x2 DUP3 ADD DUP1 SLOAD SWAP2 ISZERO ISZERO PUSH1 0xFF NOT SWAP3 DUP4 AND OR SWAP1 SSTORE PUSH1 0x60 DUP4 ADD MLOAD PUSH1 0x3 DUP4 ADD SSTORE PUSH1 0x80 SWAP1 SWAP3 ADD MLOAD PUSH1 0x4 SWAP1 SWAP2 ADD DUP1 SLOAD SWAP2 ISZERO ISZERO SWAP2 SWAP1 SWAP3 AND OR SWAP1 SSTORE DUP6 PUSH1 0xFF DUP7 AND PUSH1 0x6 DUP2 LT PUSH3 0x131 JUMPI PUSH3 0x131 PUSH3 0x64C JUMP JUMPDEST PUSH1 0x20 MUL ADD MLOAD PUSH1 0x1 PUSH1 0x0 DUP8 PUSH1 0xFF AND DUP2 MSTORE PUSH1 0x20 ADD SWAP1 DUP2 MSTORE PUSH1 0x20 ADD PUSH1 0x0 KECCAK256 PUSH1 0x0 PUSH2 0x100 EXP DUP2 SLOAD DUP2 PUSH1 0x1 PUSH1 0x1 PUSH1 0xA0 SHL SUB MUL NOT AND SWAP1 DUP4 PUSH1 0x1 PUSH1 0x1 PUSH1 0xA0 SHL SUB AND MUL OR SWAP1 SSTORE POP PUSH3 0x18D PUSH1 0x1 PUSH1 0x2 SLOAD PUSH3 0x4E6 PUSH1 0x20 SHL PUSH3 0x5CB OR SWAP1 SWAP2 SWAP1 PUSH1 0x20 SHR JUMP JUMPDEST PUSH1 0x2 SSTORE POP DUP4 SWAP3 POP PUSH3 0x1A3 SWAP2 POP DUP3 SWAP1 POP PUSH3 0x678 JUMP JUMPDEST SWAP2 POP POP PUSH3 0x37 JUMP JUMPDEST POP POP PUSH1 0x80 SWAP2 SWAP1 SWAP2 MSTORE PUSH1 0x1 PUSH1 0x1 PUSH1 0xA0 SHL SUB AND PUSH1 0xA0 MSTORE PUSH3 0x831 JUMP JUMPDEST PUSH1 0x0 DUP1 PUSH1 0x0 DUP1 PUSH3 0x3AA PUSH3 0x1EC PUSH1 0x2 DUP1 SLOAD PUSH3 0x4E6 PUSH1 0x20 SHL PUSH3 0x5CB OR SWAP1 SWAP2 SWAP1 PUSH1 0x20 SHR JUMP JUMPDEST PUSH1 0x40 DUP1 MLOAD PUSH32 0xF8F9CBFAE6CC78FBEFE7CDC3A1793DFCF4F0E8BBD8CEC470B6A28A7A5A3E1EFD DUP2 MSTORE PUSH32 0xF5ECF1B3E9DEBC68E1D9CFABC5997135BFB7A7A3938B7B606B5B4B3F2F1F0FFE PUSH1 0x20 DUP3 ADD MSTORE PUSH32 0xF6E4ED9FF2D6B458EADCDF97BD91692DE2D4DA8FD2D0AC50C6AE9A8272523616 DUP2 DUP4 ADD MSTORE PUSH32 0xC8C0B887B0A8A4489C948C7F847C6125746C645C544C444038302820181008FF PUSH1 0x60 DUP3 ADD MSTORE PUSH32 0xF7CAE577EEC2A03CF3BAD76FB589591DEBB2DD67E0AA9834BEA6925F6A4A2E0E PUSH1 0x80 DUP3 ADD MSTORE PUSH32 0xE39ED557DB96902CD38ED14FAD815115C786AF479B7E83247363534337271707 PUSH1 0xA0 DUP3 ADD MSTORE PUSH32 0xC976C13BB96E881CB166A933A55E490D9D56952B8D4E801485467D2362422606 PUSH1 0xC0 DUP3 ADD MSTORE PUSH32 0x753A6D1B65325D0C552A4D1345224105391A310B29122104190A110309020100 PUSH1 0xE0 DUP3 ADD MSTORE PUSH2 0x100 DUP1 DUP3 ADD SWAP1 SWAP3 MSTORE PUSH1 0x1 PUSH1 0xF8 SHL PUSH1 0x1 PUSH1 0x1 PUSH1 0x80 SHL PUSH9 0x10000000000000000 PUSH5 0x100000000 PUSH3 0x10000 PUSH1 0x10 PUSH1 0x4 PUSH1 0x2 PUSH1 0x0 NOT DUP13 ADD SWAP1 DUP2 DIV OR SWAP1 DUP2 DIV OR SWAP1 DUP2 DIV OR DUP9 DUP2 DIV OR SWAP1 DUP2 DIV OR SWAP1 DUP2 DIV OR SWAP1 DUP2 DIV OR SWAP1 DUP2 DIV OR ADD PUSH31 0x818283848586878898A8B8C8D8E8F929395969799A9B9D9E9FAAEB6BEDEEFF MUL DUP2 SWAP1 DIV PUSH1 0xFF SUB SWAP1 SWAP2 ADD MLOAD DIV PUSH1 0x1 PUSH1 0xFF SHL SWAP1 SWAP3 GT MUL ADD SWAP1 JUMP JUMPDEST SWAP1 POP PUSH1 0x0 PUSH1 0x2 DUP3 LT ISZERO PUSH3 0x3C1 JUMPI POP PUSH1 0x0 PUSH3 0x3EB JUMP JUMPDEST PUSH3 0x3E8 PUSH1 0x0 PUSH3 0x3E2 PUSH1 0x2 DUP6 PUSH3 0x4FD PUSH1 0x20 SHL PUSH3 0x5E0 OR SWAP1 SWAP2 SWAP1 PUSH1 0x20 SHR JUMP JUMPDEST PUSH3 0x50B JUMP JUMPDEST SWAP1 POP JUMPDEST PUSH1 0x0 PUSH3 0x40E PUSH1 0x0 PUSH3 0x3E2 PUSH1 0x1 DUP7 PUSH3 0x4FD PUSH1 0x20 SHL PUSH3 0x5E0 OR SWAP1 SWAP2 SWAP1 PUSH1 0x20 SHR JUMP JUMPDEST SWAP1 POP PUSH1 0x0 DUP2 PUSH1 0x2 SLOAD PUSH3 0x422 SWAP2 SWAP1 PUSH3 0x69A JUMP JUMPDEST PUSH3 0x42F SWAP1 PUSH1 0x1 PUSH3 0x6B0 JUMP JUMPDEST SWAP1 POP PUSH1 0x0 PUSH3 0x44E PUSH1 0x2 DUP4 PUSH3 0x54F PUSH1 0x20 SHL PUSH3 0x5EC OR SWAP1 SWAP2 SWAP1 PUSH1 0x20 SHR JUMP JUMPDEST SWAP1 POP PUSH1 0x0 PUSH3 0x46D PUSH1 0x2 DUP5 PUSH3 0x55D PUSH1 0x20 SHL PUSH3 0x5F8 OR SWAP1 SWAP2 SWAP1 PUSH1 0x20 SHR JUMP JUMPDEST SWAP1 POP PUSH1 0x1 DUP2 LT ISZERO PUSH3 0x482 JUMPI POP PUSH1 0x1 PUSH3 0x49F JUMP JUMPDEST PUSH3 0x49C DUP3 DUP3 PUSH3 0x4E6 PUSH1 0x20 SHL PUSH3 0x5CB OR SWAP1 SWAP2 SWAP1 PUSH1 0x20 SHR JUMP JUMPDEST SWAP1 POP JUMPDEST PUSH1 0x0 PUSH3 0x4D5 PUSH3 0x4C0 PUSH1 0x1 DUP5 PUSH3 0x4FD PUSH1 0x20 SHL PUSH3 0x5E0 OR SWAP1 SWAP2 SWAP1 PUSH1 0x20 SHR JUMP JUMPDEST DUP8 PUSH3 0x4E6 PUSH1 0x20 SHL PUSH3 0x5CB OR SWAP1 SWAP2 SWAP1 PUSH1 0x20 SHR JUMP JUMPDEST SWAP11 SWAP7 SWAP10 POP SWAP2 SWAP8 POP SWAP5 SWAP6 POP POP POP POP POP POP JUMP JUMPDEST PUSH1 0x0 PUSH3 0x4F4 DUP3 DUP5 PUSH3 0x6B0 JUMP JUMPDEST SWAP1 POP JUMPDEST SWAP3 SWAP2 POP POP JUMP JUMPDEST PUSH1 0x0 PUSH3 0x4F4 DUP3 DUP5 PUSH3 0x69A JUMP JUMPDEST PUSH1 0x0 DUP3 JUMPDEST DUP3 DUP2 LT ISZERO PUSH3 0x548 JUMPI PUSH3 0x525 DUP2 PUSH1 0x2 PUSH3 0x7C3 JUMP JUMPDEST PUSH3 0x531 SWAP1 DUP4 PUSH3 0x6B0 JUMP JUMPDEST SWAP2 POP DUP1 PUSH3 0x53F DUP2 PUSH3 0x7D1 JUMP JUMPDEST SWAP2 POP POP PUSH3 0x50F JUMP JUMPDEST POP SWAP3 SWAP2 POP POP JUMP JUMPDEST PUSH1 0x0 PUSH3 0x4F4 DUP3 DUP5 PUSH3 0x803 JUMP JUMPDEST PUSH1 0x0 PUSH3 0x4F4 DUP3 DUP5 PUSH3 0x81A JUMP JUMPDEST DUP1 MLOAD PUSH1 0x1 PUSH1 0x1 PUSH1 0xA0 SHL SUB DUP2 AND DUP2 EQ PUSH3 0x583 JUMPI PUSH1 0x0 DUP1 REVERT JUMPDEST SWAP2 SWAP1 POP JUMP JUMPDEST PUSH4 0x4E487B71 PUSH1 0xE0 SHL PUSH1 0x0 MSTORE PUSH1 0x41 PUSH1 0x4 MSTORE PUSH1 0x24 PUSH1 0x0 REVERT JUMPDEST PUSH1 0x0 DUP1 PUSH1 0x0 PUSH2 0x100 DUP1 DUP6 DUP8 SUB SLT ISZERO PUSH3 0x5B6 JUMPI PUSH1 0x0 DUP1 REVERT JUMPDEST DUP5 MLOAD SWAP4 POP PUSH1 0x20 PUSH3 0x5C9 DUP2 DUP8 ADD PUSH3 0x56B JUMP JUMPDEST SWAP4 POP DUP7 PUSH1 0x5F DUP8 ADD SLT PUSH3 0x5DB JUMPI PUSH1 0x0 DUP1 REVERT JUMPDEST PUSH1 0x40 MLOAD PUSH1 0xC0 DUP2 ADD PUSH1 0x1 PUSH1 0x1 PUSH1 0x40 SHL SUB DUP2 GT DUP3 DUP3 LT OR ISZERO PUSH3 0x600 JUMPI PUSH3 0x600 PUSH3 0x588 JUMP JUMPDEST PUSH1 0x40 MSTORE SWAP2 DUP7 ADD SWAP2 DUP1 DUP9 DUP5 GT ISZERO PUSH3 0x616 JUMPI PUSH1 0x0 DUP1 REVERT JUMPDEST PUSH1 0x40 DUP9 ADD JUMPDEST DUP5 DUP2 LT ISZERO PUSH3 0x63D JUMPI PUSH3 0x62F DUP2 PUSH3 0x56B JUMP JUMPDEST DUP3 MSTORE SWAP1 DUP4 ADD SWAP1 DUP4 ADD PUSH3 0x61B JUMP JUMPDEST POP POP DUP1 SWAP4 POP POP POP POP SWAP3 POP SWAP3 POP SWAP3 JUMP JUMPDEST PUSH4 0x4E487B71 PUSH1 0xE0 SHL PUSH1 0x0 MSTORE PUSH1 0x32 PUSH1 0x4 MSTORE PUSH1 0x24 PUSH1 0x0 REVERT JUMPDEST PUSH4 0x4E487B71 PUSH1 0xE0 SHL PUSH1 0x0 MSTORE PUSH1 0x11 PUSH1 0x4 MSTORE PUSH1 0x24 PUSH1 0x0 REVERT JUMPDEST PUSH1 0x0 PUSH1 0xFF DUP3 AND PUSH1 0xFF DUP2 SUB PUSH3 0x691 JUMPI PUSH3 0x691 PUSH3 0x662 JUMP JUMPDEST PUSH1 0x1 ADD SWAP3 SWAP2 POP POP JUMP JUMPDEST DUP2 DUP2 SUB DUP2 DUP2 GT ISZERO PUSH3 0x4F7 JUMPI PUSH3 0x4F7 PUSH3 0x662 JUMP JUMPDEST DUP1 DUP3 ADD DUP1 DUP3 GT ISZERO PUSH3 0x4F7 JUMPI PUSH3 0x4F7 PUSH3 0x662 JUMP JUMPDEST PUSH1 0x1 DUP2 DUP2 JUMPDEST DUP1 DUP6 GT ISZERO PUSH3 0x707 JUMPI DUP2 PUSH1 0x0 NOT DIV DUP3 GT ISZERO PUSH3 0x6EB JUMPI PUSH3 0x6EB PUSH3 0x662 JUMP JUMPDEST DUP1 DUP6 AND ISZERO PUSH3 0x6F9 JUMPI SWAP2 DUP2 MUL SWAP2 JUMPDEST SWAP4 DUP5 SHR SWAP4 SWAP1 DUP1 MUL SWAP1 PUSH3 0x6CB JUMP JUMPDEST POP SWAP3 POP SWAP3 SWAP1 POP JUMP JUMPDEST PUSH1 0x0 DUP3 PUSH3 0x720 JUMPI POP PUSH1 0x1 PUSH3 0x4F7 JUMP JUMPDEST DUP2 PUSH3 0x72F JUMPI POP PUSH1 0x0 PUSH3 0x4F7 JUMP JUMPDEST DUP2 PUSH1 0x1 DUP2 EQ PUSH3 0x748 JUMPI PUSH1 0x2 DUP2 EQ PUSH3 0x753 JUMPI PUSH3 0x773 JUMP JUMPDEST PUSH1 0x1 SWAP2 POP POP PUSH3 0x4F7 JUMP JUMPDEST PUSH1 0xFF DUP5 GT ISZERO PUSH3 0x767 JUMPI PUSH3 0x767 PUSH3 0x662 JUMP JUMPDEST POP POP PUSH1 0x1 DUP3 SHL PUSH3 0x4F7 JUMP JUMPDEST POP PUSH1 0x20 DUP4 LT PUSH2 0x133 DUP4 LT AND PUSH1 0x4E DUP5 LT PUSH1 0xB DUP5 LT AND OR ISZERO PUSH3 0x798 JUMPI POP DUP2 DUP2 EXP PUSH3 0x4F7 JUMP JUMPDEST PUSH3 0x7A4 DUP4 DUP4 PUSH3 0x6C6 JUMP JUMPDEST DUP1 PUSH1 0x0 NOT DIV DUP3 GT ISZERO PUSH3 0x7BB JUMPI PUSH3 0x7BB PUSH3 0x662 JUMP JUMPDEST MUL SWAP4 SWAP3 POP POP POP JUMP JUMPDEST PUSH1 0x0 PUSH3 0x4F4 DUP4 DUP4 PUSH3 0x70F JUMP JUMPDEST PUSH1 0x0 PUSH1 0x1 DUP3 ADD PUSH3 0x7E6 JUMPI PUSH3 0x7E6 PUSH3 0x662 JUMP JUMPDEST POP PUSH1 0x1 ADD SWAP1 JUMP JUMPDEST PUSH4 0x4E487B71 PUSH1 0xE0 SHL PUSH1 0x0 MSTORE PUSH1 0x12 PUSH1 0x4 MSTORE PUSH1 0x24 PUSH1 0x0 REVERT JUMPDEST PUSH1 0x0 DUP3 PUSH3 0x815 JUMPI PUSH3 0x815 PUSH3 0x7ED JUMP JUMPDEST POP MOD SWAP1 JUMP JUMPDEST PUSH1 0x0 DUP3 PUSH3 0x82C JUMPI PUSH3 0x82C PUSH3 0x7ED JUMP JUMPDEST POP DIV SWAP1 JUMP JUMPDEST PUSH1 0x80 MLOAD PUSH1 0xA0 MLOAD PUSH2 0xF29 PUSH3 0x8B2 PUSH1 0x0 CODECOPY PUSH1 0x0 DUP2 DUP2 PUSH2 0x27A ADD MSTORE DUP2 DUP2 PUSH2 0x2A7 ADD MSTORE DUP2 DUP2 PUSH2 0x46A ADD MSTORE DUP2 DUP2 PUSH2 0x9FB ADD MSTORE DUP2 DUP2 PUSH2 0xAB1 ADD MSTORE DUP2 DUP2 PUSH2 0xB2C ADD MSTORE PUSH2 0xBA7 ADD MSTORE PUSH1 0x0 DUP2 DUP2 PUSH2 0x190 ADD MSTORE DUP2 DUP2 PUSH2 0x443 ADD MSTORE DUP2 DUP2 PUSH2 0x4C8 ADD MSTORE DUP2 DUP2 PUSH2 0x989 ADD MSTORE DUP2 DUP2 PUSH2 0x9CE ADD MSTORE DUP2 DUP2 PUSH2 0xA84 ADD MSTORE DUP2 DUP2 PUSH2 0xAFF ADD MSTORE PUSH2 0xB7A ADD MSTORE PUSH2 0xF29 PUSH1 0x0 RETURN INVALID PUSH1 0x80 PUSH1 0x40 MSTORE PUSH1 0x4 CALLDATASIZE LT PUSH2 0x79 JUMPI PUSH1 0x0 CALLDATALOAD PUSH1 0xE0 SHR DUP1 PUSH4 0x9A0FA3C0 GT PUSH2 0x4B JUMPI DUP1 PUSH4 0x9A0FA3C0 EQ PUSH2 0x17E JUMPI DUP1 PUSH4 0xCCA76C5D EQ PUSH2 0x1B2 JUMPI DUP1 PUSH4 0xD88F666B EQ PUSH2 0x1E8 JUMPI DUP1 PUSH4 0xFFC0483D EQ PUSH2 0x268 JUMPI STOP JUMPDEST DUP1 PUSH4 0x4420E486 EQ PUSH2 0x82 JUMPI DUP1 PUSH4 0x554D63C5 EQ PUSH2 0xA2 JUMPI DUP1 PUSH4 0x6F77926B EQ PUSH2 0xCB JUMPI DUP1 PUSH4 0x984DA82E EQ PUSH2 0x130 JUMPI STOP JUMPDEST CALLDATASIZE PUSH2 0x80 JUMPI STOP JUMPDEST STOP JUMPDEST CALLVALUE DUP1 ISZERO PUSH2 0x8E JUMPI PUSH1 0x0 DUP1 REVERT JUMPDEST POP PUSH2 0x80 PUSH2 0x9D CALLDATASIZE PUSH1 0x4 PUSH2 0xD27 JUMP JUMPDEST PUSH2 0x29C JUMP JUMPDEST CALLVALUE DUP1 ISZERO PUSH2 0xAE JUMPI PUSH1 0x0 DUP1 REVERT JUMPDEST POP PUSH2 0xB8 PUSH1 0x2 SLOAD DUP2 JUMP JUMPDEST PUSH1 0x40 MLOAD SWAP1 DUP2 MSTORE PUSH1 0x20 ADD JUMPDEST PUSH1 0x40 MLOAD DUP1 SWAP2 SUB SWAP1 RETURN JUMPDEST CALLVALUE DUP1 ISZERO PUSH2 0xD7 JUMPI PUSH1 0x0 DUP1 REVERT JUMPDEST POP PUSH2 0xEB PUSH2 0xE6 CALLDATASIZE PUSH1 0x4 PUSH2 0xD27 JUMP JUMPDEST PUSH2 0x52F JUMP JUMPDEST PUSH1 0x40 DUP1 MLOAD DUP4 MLOAD DUP2 MSTORE PUSH1 0x20 DUP1 DUP6 ADD MLOAD SWAP1 DUP3 ADD MSTORE DUP4 DUP3 ADD MLOAD ISZERO ISZERO SWAP2 DUP2 ADD SWAP2 SWAP1 SWAP2 MSTORE PUSH1 0x60 DUP1 DUP5 ADD MLOAD SWAP1 DUP3 ADD MSTORE PUSH1 0x80 SWAP3 DUP4 ADD MLOAD ISZERO ISZERO SWAP3 DUP2 ADD SWAP3 SWAP1 SWAP3 MSTORE PUSH1 0xA0 DUP3 ADD MSTORE PUSH1 0xC0 ADD PUSH2 0xC2 JUMP JUMPDEST CALLVALUE DUP1 ISZERO PUSH2 0x13C JUMPI PUSH1 0x0 DUP1 REVERT JUMPDEST POP PUSH2 0x166 PUSH2 0x14B CALLDATASIZE PUSH1 0x4 PUSH2 0xD57 JUMP JUMPDEST PUSH1 0x1 PUSH1 0x20 MSTORE PUSH1 0x0 SWAP1 DUP2 MSTORE PUSH1 0x40 SWAP1 KECCAK256 SLOAD PUSH1 0x1 PUSH1 0x1 PUSH1 0xA0 SHL SUB AND DUP2 JUMP JUMPDEST PUSH1 0x40 MLOAD PUSH1 0x1 PUSH1 0x1 PUSH1 0xA0 SHL SUB SWAP1 SWAP2 AND DUP2 MSTORE PUSH1 0x20 ADD PUSH2 0xC2 JUMP JUMPDEST CALLVALUE DUP1 ISZERO PUSH2 0x18A JUMPI PUSH1 0x0 DUP1 REVERT JUMPDEST POP PUSH2 0xB8 PUSH32 0x0 DUP2 JUMP JUMPDEST CALLVALUE DUP1 ISZERO PUSH2 0x1BE JUMPI PUSH1 0x0 DUP1 REVERT JUMPDEST POP PUSH2 0x166 PUSH2 0x1CD CALLDATASIZE PUSH1 0x4 PUSH2 0xD57 JUMP JUMPDEST PUSH1 0x0 SWAP1 DUP2 MSTORE PUSH1 0x1 PUSH1 0x20 MSTORE PUSH1 0x40 SWAP1 KECCAK256 SLOAD PUSH1 0x1 PUSH1 0x1 PUSH1 0xA0 SHL SUB AND SWAP1 JUMP JUMPDEST CALLVALUE DUP1 ISZERO PUSH2 0x1F4 JUMPI PUSH1 0x0 DUP1 REVERT JUMPDEST POP PUSH2 0x237 PUSH2 0x203 CALLDATASIZE PUSH1 0x4 PUSH2 0xD27 JUMP JUMPDEST PUSH1 0x0 PUSH1 0x20 DUP2 SWAP1 MSTORE SWAP1 DUP2 MSTORE PUSH1 0x40 SWAP1 KECCAK256 DUP1 SLOAD PUSH1 0x1 DUP3 ADD SLOAD PUSH1 0x2 DUP4 ADD SLOAD PUSH1 0x3 DUP5 ADD SLOAD PUSH1 0x4 SWAP1 SWAP5 ADD SLOAD SWAP3 SWAP4 SWAP2 SWAP3 PUSH1 0xFF SWAP2 DUP3 AND SWAP3 SWAP2 AND DUP6 JUMP JUMPDEST PUSH1 0x40 MLOAD PUSH2 0xC2 SWAP6 SWAP5 SWAP4 SWAP3 SWAP2 SWAP1 SWAP5 DUP6 MSTORE PUSH1 0x20 DUP6 ADD SWAP4 SWAP1 SWAP4 MSTORE SWAP1 ISZERO ISZERO PUSH1 0x40 DUP5 ADD MSTORE PUSH1 0x60 DUP4 ADD MSTORE ISZERO ISZERO PUSH1 0x80 DUP3 ADD MSTORE PUSH1 0xA0 ADD SWAP1 JUMP JUMPDEST CALLVALUE DUP1 ISZERO PUSH2 0x274 JUMPI PUSH1 0x0 DUP1 REVERT JUMPDEST POP PUSH2 0x166 PUSH32 0x0 DUP2 JUMP JUMPDEST CALLER PUSH1 0x1 PUSH1 0x1 PUSH1 0xA0 SHL SUB PUSH32 0x0 AND EQ PUSH2 0x332 JUMPI PUSH1 0x40 MLOAD PUSH32 0x8C379A000000000000000000000000000000000000000000000000000000000 DUP2 MSTORE PUSH1 0x20 PUSH1 0x4 DUP3 ADD MSTORE PUSH1 0x10 PUSH1 0x24 DUP3 ADD MSTORE PUSH32 0x6163636573732064656E69656420303200000000000000000000000000000000 PUSH1 0x44 DUP3 ADD MSTORE PUSH1 0x64 ADD PUSH1 0x40 MLOAD DUP1 SWAP2 SUB SWAP1 REVERT JUMPDEST PUSH1 0x0 DUP1 PUSH1 0x0 PUSH2 0x33F PUSH2 0x604 JUMP JUMPDEST PUSH1 0x40 DUP1 MLOAD PUSH1 0xA0 DUP2 ADD DUP3 MSTORE PUSH1 0x2 SLOAD DUP2 MSTORE PUSH1 0x20 DUP2 ADD DUP6 SWAP1 MSTORE PUSH1 0x0 SWAP2 DUP2 ADD DUP3 SWAP1 MSTORE PUSH1 0x60 DUP2 ADD DUP5 SWAP1 MSTORE PUSH1 0x1 PUSH1 0x80 DUP3 ADD MSTORE SWAP4 SWAP7 POP SWAP2 SWAP5 POP SWAP3 POP DUP3 SWAP1 SUB PUSH2 0x390 JUMPI PUSH1 0x1 PUSH1 0x40 DUP3 ADD MSTORE DUP4 ISZERO PUSH2 0x390 JUMPI PUSH2 0x390 DUP5 PUSH2 0x8E6 JUMP JUMPDEST PUSH1 0x1 PUSH1 0x1 PUSH1 0xA0 SHL SUB DUP6 AND PUSH1 0x0 SWAP1 DUP2 MSTORE PUSH1 0x20 DUP2 DUP2 MSTORE PUSH1 0x40 SWAP2 DUP3 SWAP1 KECCAK256 DUP4 MLOAD DUP2 SSTORE SWAP1 DUP4 ADD MLOAD PUSH1 0x1 DUP3 ADD SSTORE SWAP1 DUP3 ADD MLOAD PUSH1 0x2 DUP3 ADD DUP1 SLOAD SWAP2 ISZERO ISZERO PUSH1 0xFF NOT SWAP3 DUP4 AND OR SWAP1 SSTORE PUSH1 0x60 DUP4 ADD MLOAD PUSH1 0x3 DUP4 ADD SSTORE PUSH1 0x80 DUP4 ADD MLOAD PUSH1 0x4 SWAP1 SWAP3 ADD DUP1 SLOAD SWAP3 ISZERO ISZERO SWAP3 SWAP1 SWAP2 AND SWAP2 SWAP1 SWAP2 OR SWAP1 SSTORE PUSH2 0x3F9 DUP6 PUSH2 0xC94 JUMP JUMPDEST PUSH1 0x0 DUP5 DUP2 MSTORE PUSH1 0x1 PUSH1 0x20 MSTORE PUSH1 0x40 SWAP1 DUP2 SWAP1 KECCAK256 SLOAD SWAP1 MLOAD PUSH32 0xDFAC767C00000000000000000000000000000000000000000000000000000000 DUP2 MSTORE PUSH1 0x1 PUSH1 0x1 PUSH1 0xA0 SHL SUB SWAP2 DUP3 AND PUSH1 0x4 DUP3 ADD DUP2 SWAP1 MSTORE PUSH32 0x0 PUSH1 0x24 DUP4 ADD MSTORE SWAP2 PUSH32 0x0 AND SWAP1 PUSH4 0xDFAC767C SWAP1 PUSH1 0x44 ADD PUSH1 0x0 PUSH1 0x40 MLOAD DUP1 DUP4 SUB DUP2 PUSH1 0x0 DUP8 DUP1 EXTCODESIZE ISZERO DUP1 ISZERO PUSH2 0x4AE JUMPI PUSH1 0x0 DUP1 REVERT JUMPDEST POP GAS CALL ISZERO DUP1 ISZERO PUSH2 0x4C2 JUMPI RETURNDATASIZE PUSH1 0x0 DUP1 RETURNDATACOPY RETURNDATASIZE PUSH1 0x0 REVERT JUMPDEST POP POP POP POP PUSH32 0x0 DUP2 PUSH1 0x1 PUSH1 0x1 PUSH1 0xA0 SHL SUB AND DUP8 PUSH1 0x1 PUSH1 0x1 PUSH1 0xA0 SHL SUB AND PUSH32 0xECC93E3681E475770B08D7067A66D2A6E16620B712ED2DAB831114964CA6326A PUSH1 0x40 MLOAD PUSH1 0x40 MLOAD DUP1 SWAP2 SUB SWAP1 LOG4 POP POP POP POP POP POP JUMP JUMPDEST PUSH2 0x565 PUSH1 0x40 MLOAD DUP1 PUSH1 0xA0 ADD PUSH1 0x40 MSTORE DUP1 PUSH1 0x0 DUP2 MSTORE PUSH1 0x20 ADD PUSH1 0x0 DUP2 MSTORE PUSH1 0x20 ADD PUSH1 0x0 ISZERO ISZERO DUP2 MSTORE PUSH1 0x20 ADD PUSH1 0x0 DUP2 MSTORE PUSH1 0x20 ADD PUSH1 0x0 ISZERO ISZERO DUP2 MSTORE POP SWAP1 JUMP JUMPDEST POP PUSH1 0x1 PUSH1 0x1 PUSH1 0xA0 SHL SUB AND PUSH1 0x0 SWAP1 DUP2 MSTORE PUSH1 0x20 DUP2 DUP2 MSTORE PUSH1 0x40 SWAP2 DUP3 SWAP1 KECCAK256 DUP3 MLOAD PUSH1 0xA0 DUP2 ADD DUP5 MSTORE DUP2 SLOAD DUP2 MSTORE PUSH1 0x1 DUP3 ADD SLOAD SWAP3 DUP2 ADD SWAP3 SWAP1 SWAP3 MSTORE PUSH1 0x2 DUP1 DUP3 ADD SLOAD PUSH1 0xFF SWAP1 DUP2 AND ISZERO ISZERO SWAP5 DUP5 ADD SWAP5 SWAP1 SWAP5 MSTORE PUSH1 0x3 DUP3 ADD SLOAD PUSH1 0x60 DUP5 ADD MSTORE PUSH1 0x4 SWAP1 SWAP2 ADD SLOAD SWAP1 SWAP3 AND ISZERO ISZERO PUSH1 0x80 DUP3 ADD MSTORE SWAP1 SLOAD SWAP1 SWAP2 JUMP JUMPDEST PUSH1 0x0 PUSH2 0x5D7 DUP3 DUP5 PUSH2 0xD86 JUMP JUMPDEST SWAP1 POP JUMPDEST SWAP3 SWAP2 POP POP JUMP JUMPDEST PUSH1 0x0 PUSH2 0x5D7 DUP3 DUP5 PUSH2 0xD99 JUMP JUMPDEST PUSH1 0x0 PUSH2 0x5D7 DUP3 DUP5 PUSH2 0xDC2 JUMP JUMPDEST PUSH1 0x0 PUSH2 0x5D7 DUP3 DUP5 PUSH2 0xDD6 JUMP JUMPDEST PUSH1 0x0 DUP1 PUSH1 0x0 DUP1 PUSH2 0x825 PUSH2 0x622 PUSH1 0x2 DUP1 SLOAD PUSH2 0x5CB SWAP1 SWAP2 SWAP1 PUSH4 0xFFFFFFFF AND JUMP JUMPDEST PUSH1 0x40 DUP1 MLOAD PUSH32 0xF8F9CBFAE6CC78FBEFE7CDC3A1793DFCF4F0E8BBD8CEC470B6A28A7A5A3E1EFD DUP2 MSTORE PUSH32 0xF5ECF1B3E9DEBC68E1D9CFABC5997135BFB7A7A3938B7B606B5B4B3F2F1F0FFE PUSH1 0x20 DUP3 ADD MSTORE PUSH32 0xF6E4ED9FF2D6B458EADCDF97BD91692DE2D4DA8FD2D0AC50C6AE9A8272523616 DUP2 DUP4 ADD MSTORE PUSH32 0xC8C0B887B0A8A4489C948C7F847C6125746C645C544C444038302820181008FF PUSH1 0x60 DUP3 ADD MSTORE PUSH32 0xF7CAE577EEC2A03CF3BAD76FB589591DEBB2DD67E0AA9834BEA6925F6A4A2E0E PUSH1 0x80 DUP3 ADD MSTORE PUSH32 0xE39ED557DB96902CD38ED14FAD815115C786AF479B7E83247363534337271707 PUSH1 0xA0 DUP3 ADD MSTORE PUSH32 0xC976C13BB96E881CB166A933A55E490D9D56952B8D4E801485467D2362422606 PUSH1 0xC0 DUP3 ADD MSTORE PUSH32 0x753A6D1B65325D0C552A4D1345224105391A310B29122104190A110309020100 PUSH1 0xE0 DUP3 ADD MSTORE PUSH2 0x100 DUP1 DUP3 ADD SWAP1 SWAP3 MSTORE PUSH32 0x100000000000000000000000000000000000000000000000000000000000000 PUSH1 0x1 PUSH17 0x100000000000000000000000000000000 PUSH9 0x10000000000000000 PUSH5 0x100000000 PUSH3 0x10000 PUSH1 0x10 PUSH1 0x4 PUSH1 0x2 PUSH1 0x0 NOT DUP13 ADD SWAP1 DUP2 DIV OR SWAP1 DUP2 DIV OR SWAP1 DUP2 DIV OR DUP9 DUP2 DIV OR SWAP1 DUP2 DIV OR SWAP1 DUP2 DIV OR SWAP1 DUP2 DIV OR SWAP1 DUP2 DIV OR ADD PUSH31 0x818283848586878898A8B8C8D8E8F929395969799A9B9D9E9FAAEB6BEDEEFF MUL DUP2 SWAP1 DIV PUSH1 0xFF SUB SWAP1 SWAP2 ADD MLOAD DIV PUSH32 0x8000000000000000000000000000000000000000000000000000000000000000 SWAP1 SWAP3 GT MUL ADD SWAP1 JUMP JUMPDEST SWAP1 POP PUSH1 0x0 PUSH1 0x2 DUP3 LT ISZERO PUSH2 0x83A JUMPI POP PUSH1 0x0 PUSH2 0x852 JUMP JUMPDEST PUSH2 0x84F PUSH1 0x0 PUSH2 0x84A DUP5 PUSH1 0x2 PUSH2 0x5E0 JUMP JUMPDEST PUSH2 0xCEB JUMP JUMPDEST SWAP1 POP JUMPDEST PUSH1 0x0 PUSH2 0x863 DUP2 PUSH2 0x84A DUP6 PUSH1 0x1 PUSH2 0x5E0 JUMP JUMPDEST SWAP1 POP PUSH1 0x0 DUP2 PUSH1 0x2 SLOAD PUSH2 0x875 SWAP2 SWAP1 PUSH2 0xD99 JUMP JUMPDEST PUSH2 0x880 SWAP1 PUSH1 0x1 PUSH2 0xD86 JUMP JUMPDEST SWAP1 POP PUSH1 0x0 PUSH2 0x88F DUP3 PUSH1 0x2 PUSH2 0x5EC JUMP JUMPDEST SWAP1 POP PUSH1 0x0 PUSH2 0x89E DUP4 PUSH1 0x2 PUSH2 0x5F8 JUMP JUMPDEST SWAP1 POP PUSH1 0x1 DUP2 LT ISZERO PUSH2 0x8B1 JUMPI POP PUSH1 0x1 PUSH2 0x8BE JUMP JUMPDEST PUSH2 0x8BB DUP2 DUP4 PUSH2 0x5CB JUMP JUMPDEST SWAP1 POP JUMPDEST PUSH1 0x0 PUSH2 0x8D5 PUSH2 0x8CE DUP4 PUSH1 0x1 PUSH2 0x5E0 JUMP JUMPDEST DUP8 SWAP1 PUSH2 0x5CB JUMP JUMPDEST SWAP11 SWAP7 SWAP10 POP SWAP2 SWAP8 POP SWAP5 SWAP6 POP POP POP POP POP POP JUMP JUMPDEST PUSH1 0x0 DUP2 DUP2 MSTORE PUSH1 0x1 PUSH1 0x20 DUP2 DUP2 MSTORE PUSH1 0x40 DUP1 DUP5 KECCAK256 SLOAD PUSH1 0x1 PUSH1 0x1 PUSH1 0xA0 SHL SUB AND DUP1 DUP6 MSTORE DUP5 DUP4 MSTORE SWAP4 DUP2 SWAP1 KECCAK256 DUP2 MLOAD PUSH1 0xA0 DUP2 ADD DUP4 MSTORE DUP2 SLOAD DUP2 MSTORE SWAP4 DUP2 ADD SLOAD SWAP3 DUP5 ADD SWAP3 SWAP1 SWAP3 MSTORE PUSH1 0x2 DUP1 DUP4 ADD SLOAD PUSH1 0xFF SWAP1 DUP2 AND ISZERO ISZERO SWAP3 DUP6 ADD SWAP3 SWAP1 SWAP3 MSTORE PUSH1 0x3 DUP4 ADD SLOAD PUSH1 0x60 DUP6 ADD MSTORE PUSH1 0x4 SWAP1 SWAP3 ADD SLOAD AND ISZERO ISZERO PUSH1 0x80 DUP4 ADD MSTORE JUMPDEST PUSH1 0x5 DUP2 GT PUSH2 0xC8E JUMPI DUP2 PUSH1 0x40 ADD MLOAD ISZERO PUSH2 0xC8E JUMPI PUSH1 0x20 DUP1 DUP4 ADD MLOAD PUSH1 0x0 SWAP1 DUP2 MSTORE PUSH1 0x1 SWAP1 SWAP2 MSTORE PUSH1 0x40 SWAP1 KECCAK256 SLOAD PUSH1 0x1 PUSH1 0x1 PUSH1 0xA0 SHL SUB AND PUSH1 0x3 DUP3 GT PUSH2 0xB5B JUMPI PUSH32 0x0 PUSH1 0x0 SUB PUSH2 0xA5D JUMPI PUSH1 0x40 MLOAD PUSH4 0x2E525D3 PUSH1 0xE1 SHL DUP2 MSTORE PUSH1 0x1 PUSH1 0x1 PUSH1 0xA0 SHL SUB DUP3 DUP2 AND PUSH1 0x4 DUP4 ADD MSTORE PUSH32 0x0 PUSH1 0x24 DUP4 ADD MSTORE PUSH1 0x0 PUSH1 0x44 DUP4 ADD MSTORE PUSH32 0x0 AND SWAP1 PUSH4 0x5CA4BA6 SWAP1 PUSH1 0x64 ADD JUMPDEST PUSH1 0x0 PUSH1 0x40 MLOAD DUP1 DUP4 SUB DUP2 PUSH1 0x0 DUP8 DUP1 EXTCODESIZE ISZERO DUP1 ISZERO PUSH2 0xA40 JUMPI PUSH1 0x0 DUP1 REVERT JUMPDEST POP GAS CALL ISZERO DUP1 ISZERO PUSH2 0xA54 JUMPI RETURNDATASIZE PUSH1 0x0 DUP1 RETURNDATACOPY RETURNDATASIZE PUSH1 0x0 REVERT JUMPDEST POP POP POP POP PUSH2 0xC11 JUMP JUMPDEST DUP2 PUSH1 0x2 SUB PUSH2 0xAE0 JUMPI PUSH1 0x40 MLOAD PUSH4 0x2E525D3 PUSH1 0xE1 SHL DUP2 MSTORE PUSH1 0x1 PUSH1 0x1 PUSH1 0xA0 SHL SUB DUP3 DUP2 AND PUSH1 0x4 DUP4 ADD MSTORE PUSH32 0x0 PUSH1 0x24 DUP4 ADD MSTORE PUSH1 0x2 PUSH1 0x44 DUP4 ADD MSTORE PUSH32 0x0 AND SWAP1 PUSH4 0x5CA4BA6 SWAP1 PUSH1 0x64 ADD PUSH2 0xA26 JUMP JUMPDEST PUSH1 0x40 MLOAD PUSH4 0x2E525D3 PUSH1 0xE1 SHL DUP2 MSTORE PUSH1 0x1 PUSH1 0x1 PUSH1 0xA0 SHL SUB DUP3 DUP2 AND PUSH1 0x4 DUP4 ADD MSTORE PUSH32 0x0 PUSH1 0x24 DUP4 ADD MSTORE PUSH1 0x1 PUSH1 0x44 DUP4 ADD MSTORE PUSH32 0x0 AND SWAP1 PUSH4 0x5CA4BA6 SWAP1 PUSH1 0x64 ADD PUSH2 0xA26 JUMP JUMPDEST PUSH1 0x40 MLOAD PUSH4 0x2E525D3 PUSH1 0xE1 SHL DUP2 MSTORE PUSH1 0x1 PUSH1 0x1 PUSH1 0xA0 SHL SUB DUP3 DUP2 AND PUSH1 0x4 DUP4 ADD MSTORE PUSH32 0x0 PUSH1 0x24 DUP4 ADD MSTORE PUSH1 0x1 PUSH1 0x44 DUP4 ADD MSTORE PUSH32 0x0 AND SWAP1 PUSH4 0x5CA4BA6 SWAP1 PUSH1 0x64 ADD PUSH1 0x0 PUSH1 0x40 MLOAD DUP1 DUP4 SUB DUP2 PUSH1 0x0 DUP8 DUP1 EXTCODESIZE ISZERO DUP1 ISZERO PUSH2 0xBEB JUMPI PUSH1 0x0 DUP1 REVERT JUMPDEST POP GAS CALL ISZERO DUP1 ISZERO PUSH2 0xBFF JUMPI RETURNDATASIZE PUSH1 0x0 DUP1 RETURNDATACOPY RETURNDATASIZE PUSH1 0x0 REVERT JUMPDEST POP POP POP POP DUP2 PUSH1 0x5 SUB PUSH2 0xC11 JUMPI POP PUSH2 0xC8E JUMP JUMPDEST POP PUSH1 0x20 SWAP2 DUP3 ADD MLOAD PUSH1 0x0 SWAP1 DUP2 MSTORE PUSH1 0x1 DUP1 DUP5 MSTORE PUSH1 0x40 DUP1 DUP4 KECCAK256 SLOAD PUSH1 0x1 PUSH1 0x1 PUSH1 0xA0 SHL SUB AND DUP4 MSTORE DUP3 DUP6 MSTORE SWAP2 DUP3 SWAP1 KECCAK256 DUP3 MLOAD PUSH1 0xA0 DUP2 ADD DUP5 MSTORE DUP2 SLOAD DUP2 MSTORE SWAP2 DUP2 ADD SLOAD SWAP5 DUP3 ADD SWAP5 SWAP1 SWAP5 MSTORE PUSH1 0x2 DUP5 ADD SLOAD PUSH1 0xFF SWAP1 DUP2 AND ISZERO ISZERO SWAP3 DUP3 ADD SWAP3 SWAP1 SWAP3 MSTORE PUSH1 0x3 DUP5 ADD SLOAD PUSH1 0x60 DUP3 ADD MSTORE PUSH1 0x4 SWAP1 SWAP4 ADD SLOAD AND ISZERO ISZERO PUSH1 0x80 DUP4 ADD MSTORE DUP1 PUSH2 0xC86 DUP2 PUSH2 0xDEA JUMP JUMPDEST SWAP2 POP POP PUSH2 0x94F JUMP JUMPDEST POP POP POP POP JUMP JUMPDEST PUSH1 0x2 DUP1 SLOAD PUSH1 0x0 SWAP1 DUP2 MSTORE PUSH1 0x1 PUSH1 0x20 DUP2 SWAP1 MSTORE PUSH1 0x40 SWAP1 SWAP2 KECCAK256 DUP1 SLOAD PUSH32 0xFFFFFFFFFFFFFFFFFFFFFFFF0000000000000000000000000000000000000000 AND PUSH1 0x1 PUSH1 0x1 PUSH1 0xA0 SHL SUB DUP6 AND OR SWAP1 SSTORE SWAP1 SLOAD PUSH2 0xCE5 SWAP2 PUSH2 0x5CB JUMP JUMPDEST PUSH1 0x2 SSTORE POP JUMP JUMPDEST PUSH1 0x0 DUP3 JUMPDEST DUP3 DUP2 LT ISZERO PUSH2 0xD20 JUMPI PUSH2 0xD02 DUP2 PUSH1 0x2 PUSH2 0xEE7 JUMP JUMPDEST PUSH2 0xD0C SWAP1 DUP4 PUSH2 0xD86 JUMP JUMPDEST SWAP2 POP DUP1 PUSH2 0xD18 DUP2 PUSH2 0xDEA JUMP JUMPDEST SWAP2 POP POP PUSH2 0xCEF JUMP JUMPDEST POP SWAP3 SWAP2 POP POP JUMP JUMPDEST PUSH1 0x0 PUSH1 0x20 DUP3 DUP5 SUB SLT ISZERO PUSH2 0xD39 JUMPI PUSH1 0x0 DUP1 REVERT JUMPDEST DUP2 CALLDATALOAD PUSH1 0x1 PUSH1 0x1 PUSH1 0xA0 SHL SUB DUP2 AND DUP2 EQ PUSH2 0xD50 JUMPI PUSH1 0x0 DUP1 REVERT JUMPDEST SWAP4 SWAP3 POP POP POP JUMP JUMPDEST PUSH1 0x0 PUSH1 0x20 DUP3 DUP5 SUB SLT ISZERO PUSH2 0xD69 JUMPI PUSH1 0x0 DUP1 REVERT JUMPDEST POP CALLDATALOAD SWAP2 SWAP1 POP JUMP JUMPDEST PUSH4 0x4E487B71 PUSH1 0xE0 SHL PUSH1 0x0 MSTORE PUSH1 0x11 PUSH1 0x4 MSTORE PUSH1 0x24 PUSH1 0x0 REVERT JUMPDEST DUP1 DUP3 ADD DUP1 DUP3 GT ISZERO PUSH2 0x5DA JUMPI PUSH2 0x5DA PUSH2 0xD70 JUMP JUMPDEST DUP2 DUP2 SUB DUP2 DUP2 GT ISZERO PUSH2 0x5DA JUMPI PUSH2 0x5DA PUSH2 0xD70 JUMP JUMPDEST PUSH4 0x4E487B71 PUSH1 0xE0 SHL PUSH1 0x0 MSTORE PUSH1 0x12 PUSH1 0x4 MSTORE PUSH1 0x24 PUSH1 0x0 REVERT JUMPDEST PUSH1 0x0 DUP3 PUSH2 0xDD1 JUMPI PUSH2 0xDD1 PUSH2 0xDAC JUMP JUMPDEST POP MOD SWAP1 JUMP JUMPDEST PUSH1 0x0 DUP3 PUSH2 0xDE5 JUMPI PUSH2 0xDE5 PUSH2 0xDAC JUMP JUMPDEST POP DIV SWAP1 JUMP JUMPDEST PUSH1 0x0 PUSH1 0x1 DUP3 ADD PUSH2 0xDFC JUMPI PUSH2 0xDFC PUSH2 0xD70 JUMP JUMPDEST POP PUSH1 0x1 ADD SWAP1 JUMP JUMPDEST PUSH1 0x1 DUP2 DUP2 JUMPDEST DUP1 DUP6 GT ISZERO PUSH2 0xE3E JUMPI DUP2 PUSH1 0x0 NOT DIV DUP3 GT ISZERO PUSH2 0xE24 JUMPI PUSH2 0xE24 PUSH2 0xD70 JUMP JUMPDEST DUP1 DUP6 AND ISZERO PUSH2 0xE31 JUMPI SWAP2 DUP2 MUL SWAP2 JUMPDEST SWAP4 DUP5 SHR SWAP4 SWAP1 DUP1 MUL SWAP1 PUSH2 0xE08 JUMP JUMPDEST POP SWAP3 POP SWAP3 SWAP1 POP JUMP JUMPDEST PUSH1 0x0 DUP3 PUSH2 0xE55 JUMPI POP PUSH1 0x1 PUSH2 0x5DA JUMP JUMPDEST DUP2 PUSH2 0xE62 JUMPI POP PUSH1 0x0 PUSH2 0x5DA JUMP JUMPDEST DUP2 PUSH1 0x1 DUP2 EQ PUSH2 0xE78 JUMPI PUSH1 0x2 DUP2 EQ PUSH2 0xE82 JUMPI PUSH2 0xE9E JUMP JUMPDEST PUSH1 0x1 SWAP2 POP POP PUSH2 0x5DA JUMP JUMPDEST PUSH1 0xFF DUP5 GT ISZERO PUSH2 0xE93 JUMPI PUSH2 0xE93 PUSH2 0xD70 JUMP JUMPDEST POP POP PUSH1 0x1 DUP3 SHL PUSH2 0x5DA JUMP JUMPDEST POP PUSH1 0x20 DUP4 LT PUSH2 0x133 DUP4 LT AND PUSH1 0x4E DUP5 LT PUSH1 0xB DUP5 LT AND OR ISZERO PUSH2 0xEC1 JUMPI POP DUP2 DUP2 EXP PUSH2 0x5DA JUMP JUMPDEST PUSH2 0xECB DUP4 DUP4 PUSH2 0xE03 JUMP JUMPDEST DUP1 PUSH1 0x0 NOT DIV DUP3 GT ISZERO PUSH2 0xEDF JUMPI PUSH2 0xEDF PUSH2 0xD70 JUMP JUMPDEST MUL SWAP4 SWAP3 POP POP POP JUMP JUMPDEST PUSH1 0x0 PUSH2 0x5D7 DUP4 DUP4 PUSH2 0xE46 JUMP INVALID LOG2 PUSH5 0x6970667358 0x22 SLT KECCAK256 OR PUSH29 0x46B3342FE53EC4E46335DE35E9CAB5C27AE1A7CCD4EAABA457B40D34F5 DIV PUSH5 0x736F6C6343 STOP ADDMOD GT STOP CALLER "
        },
        "methodIdentifiers": {
          "Addresses(address)": "d88f666b",
          "CoreAddress()": "ffc0483d",
          "Indices(uint256)": "984da82e",
          "IndicesTotal()": "554d63c5",
          "getUser(address)": "6f77926b",
          "getUserAddressByIndex(uint256)": "cca76c5d",
          "matrixIndex()": "9a0fa3c0",
          "register(address)": "4420e486"
        }
      }
    }
  }
}