{
  "_format": "hh-sol-artifact-1",
  "contractName": "Core",
  "sourceName": "contracts/Core.sol",
  "abi": [
    {
      "inputs": [
        {
          "internalType": "address[6]",
          "name": "_sixFounders",
          "type": "address[6]"
        }
      ],
      "stateMutability": "payable",
      "type": "constructor"
    },
    {
      "anonymous": false,
      "inputs": [
        {
          "indexed": true,
          "internalType": "address",
          "name": "owner",
          "type": "address"
        },
        {
          "indexed": true,
          "internalType": "uint256",
          "name": "value",
          "type": "uint256"
        },
        {
          "indexed": false,
          "internalType": "uint256",
          "name": "newLevel",
          "type": "uint256"
        }
      ],
      "name": "ClaimsSpent",
      "type": "event"
    },
    {
      "anonymous": false,
      "inputs": [
        {
          "indexed": true,
          "internalType": "address",
          "name": "user",
          "type": "address"
        },
        {
          "indexed": true,
          "internalType": "uint256",
          "name": "matrixIndex",
          "type": "uint256"
        },
        {
          "indexed": false,
          "internalType": "uint256",
          "name": "amount",
          "type": "uint256"
        }
      ],
      "name": "GiftAppear",
      "type": "event"
    },
    {
      "anonymous": false,
      "inputs": [
        {
          "indexed": true,
          "internalType": "address",
          "name": "giftOwner",
          "type": "address"
        },
        {
          "indexed": true,
          "internalType": "address",
          "name": "giftSpender",
          "type": "address"
        }
      ],
      "name": "GiftSpent",
      "type": "event"
    },
    {
      "anonymous": false,
      "inputs": [
        {
          "indexed": true,
          "internalType": "address",
          "name": "whose",
          "type": "address"
        },
        {
          "indexed": false,
          "internalType": "uint256",
          "name": "amount",
          "type": "uint256"
        }
      ],
      "name": "ReferralEarn",
      "type": "event"
    },
    {
      "anonymous": false,
      "inputs": [
        {
          "indexed": true,
          "internalType": "address",
          "name": "user",
          "type": "address"
        },
        {
          "indexed": true,
          "internalType": "address",
          "name": "whose",
          "type": "address"
        },
        {
          "indexed": false,
          "internalType": "uint256",
          "name": "change",
          "type": "uint256"
        }
      ],
      "name": "WhoseRegistered",
      "type": "event"
    },
    {
      "stateMutability": "payable",
      "type": "fallback"
    },
    {
      "inputs": [],
      "name": "AddressesGlobalTotal",
      "outputs": [
        {
          "internalType": "uint256",
          "name": "",
          "type": "uint256"
        }
      ],
      "stateMutability": "view",
      "type": "function"
    },
    {
      "inputs": [],
      "name": "getBalance",
      "outputs": [
        {
          "internalType": "uint256",
          "name": "",
          "type": "uint256"
        }
      ],
      "stateMutability": "view",
      "type": "function"
    },
    {
      "inputs": [
        {
          "internalType": "uint256",
          "name": "_matrixIndex",
          "type": "uint256"
        },
        {
          "internalType": "uint256",
          "name": "_userIndex",
          "type": "uint256"
        }
      ],
      "name": "getCoreUserByMatrixPosition",
      "outputs": [
        {
          "internalType": "address",
          "name": "userAddress",
          "type": "address"
        },
        {
          "components": [
            {
              "internalType": "uint256",
              "name": "claims",
              "type": "uint256"
            },
            {
              "internalType": "uint256",
              "name": "gifts",
              "type": "uint256"
            },
            {
              "internalType": "uint256",
              "name": "level",
              "type": "uint256"
            },
            {
              "internalType": "address",
              "name": "whose",
              "type": "address"
            },
            {
              "internalType": "bool",
              "name": "isValue",
              "type": "bool"
            }
          ],
          "internalType": "struct Core.UserGlobal",
          "name": "user",
          "type": "tuple"
        }
      ],
      "stateMutability": "view",
      "type": "function"
    },
    {
      "inputs": [
        {
          "internalType": "uint256",
          "name": "_level",
          "type": "uint256"
        }
      ],
      "name": "getLevelContract",
      "outputs": [
        {
          "internalType": "address",
          "name": "",
          "type": "address"
        }
      ],
      "stateMutability": "view",
      "type": "function"
    },
    {
      "inputs": [],
      "name": "getTenPercentOnceYear",
      "outputs": [],
      "stateMutability": "nonpayable",
      "type": "function"
    },
    {
      "inputs": [
        {
          "internalType": "address",
          "name": "_userAddress",
          "type": "address"
        }
      ],
      "name": "getUserFromCore",
      "outputs": [
        {
          "components": [
            {
              "internalType": "uint256",
              "name": "claims",
              "type": "uint256"
            },
            {
              "internalType": "uint256",
              "name": "gifts",
              "type": "uint256"
            },
            {
              "internalType": "uint256",
              "name": "level",
              "type": "uint256"
            },
            {
              "internalType": "address",
              "name": "whose",
              "type": "address"
            },
            {
              "internalType": "bool",
              "name": "isValue",
              "type": "bool"
            }
          ],
          "internalType": "struct Core.UserGlobal",
          "name": "user",
          "type": "tuple"
        }
      ],
      "stateMutability": "view",
      "type": "function"
    },
    {
      "inputs": [
        {
          "internalType": "uint256",
          "name": "_matrixIdx",
          "type": "uint256"
        },
        {
          "internalType": "address",
          "name": "_userWallet",
          "type": "address"
        }
      ],
      "name": "getUserFromMatrix",
      "outputs": [
        {
          "components": [
            {
              "internalType": "uint256",
              "name": "index",
              "type": "uint256"
            },
            {
              "internalType": "uint256",
              "name": "parent",
              "type": "uint256"
            },
            {
              "internalType": "bool",
              "name": "isRight",
              "type": "bool"
            },
            {
              "internalType": "uint256",
              "name": "plateau",
              "type": "uint256"
            },
            {
              "internalType": "bool",
              "name": "isValue",
              "type": "bool"
            }
          ],
          "internalType": "struct MatrixTemplate.User",
          "name": "user",
          "type": "tuple"
        },
        {
          "internalType": "uint256",
          "name": "total",
          "type": "uint256"
        }
      ],
      "stateMutability": "view",
      "type": "function"
    },
    {
      "inputs": [],
      "name": "lastUpdated",
      "outputs": [
        {
          "internalType": "uint256",
          "name": "",
          "type": "uint256"
        }
      ],
      "stateMutability": "view",
      "type": "function"
    },
    {
      "inputs": [],
      "name": "maxLevel",
      "outputs": [
        {
          "internalType": "uint256",
          "name": "",
          "type": "uint256"
        }
      ],
      "stateMutability": "view",
      "type": "function"
    },
    {
      "inputs": [],
      "name": "payUnit",
      "outputs": [
        {
          "internalType": "uint256",
          "name": "",
          "type": "uint256"
        }
      ],
      "stateMutability": "view",
      "type": "function"
    },
    {
      "inputs": [
        {
          "internalType": "address",
          "name": "_whose",
          "type": "address"
        }
      ],
      "name": "register",
      "outputs": [],
      "stateMutability": "payable",
      "type": "function"
    },
    {
      "inputs": [
        {
          "internalType": "address",
          "name": "_wallet",
          "type": "address"
        },
        {
          "internalType": "uint256",
          "name": "_matrixIndex",
          "type": "uint256"
        }
      ],
      "name": "sendHalf",
      "outputs": [],
      "stateMutability": "nonpayable",
      "type": "function"
    },
    {
      "inputs": [
        {
          "internalType": "address",
          "name": "_userAddress",
          "type": "address"
        },
        {
          "internalType": "uint256",
          "name": "_matrixIndex",
          "type": "uint256"
        },
        {
          "internalType": "uint256",
          "name": "_field",
          "type": "uint256"
        }
      ],
      "name": "updateUser",
      "outputs": [],
      "stateMutability": "nonpayable",
      "type": "function"
    },
    {
      "inputs": [
        {
          "internalType": "uint256",
          "name": "_amount",
          "type": "uint256"
        }
      ],
      "name": "withdrawClaim",
      "outputs": [],
      "stateMutability": "nonpayable",
      "type": "function"
    },
    {
      "stateMutability": "payable",
      "type": "receive"
    }
  ],
  "bytecode": "0x60a060405260018055600060175560405162003901380380620039018339810160408190526200002f9162000262565b80516001600160a01b031660805260005b60068110156200017a5760008082116200005d5750815162000086565b826200006b60018462000328565b600681106200007e576200007e620002fc565b602002015190505b6040518060a00160405280600081526020016000815260200160138152602001826001600160a01b031681526020016001151581525060166000858560068110620000d557620000d5620002fc565b602090810291909101516001600160a01b03908116835282820193909352604091820160002084518155848201516001808301919091559285015160028201556060850151600390910180546080909601511515600160a01b026001600160a81b03199096169190941617939093179091556017546200016192909190620014d662000220821b17901c565b601755508062000171816200033e565b91505062000040565b5060005b60138111620002145760008130846040516200019a9062000237565b620001a8939291906200035a565b604051809103906000f080158015620001c5573d6000803e3d6000fd5b5090508060028360148110620001df57620001df620002fc565b0180546001600160a01b0319166001600160a01b039290921691909117905550806200020b816200033e565b9150506200017e565b505042600055620003c3565b60006200022e8284620003ad565b90505b92915050565b611a868062001e7b83390190565b80516001600160a01b03811681146200025d57600080fd5b919050565b600060c082840312156200027557600080fd5b82601f8301126200028557600080fd5b60405160c081016001600160401b0381118282101715620002b657634e487b7160e01b600052604160045260246000fd5b6040528060c0840185811115620002cc57600080fd5b845b81811015620002f157620002e28162000245565b835260209283019201620002ce565b509195945050505050565b634e487b7160e01b600052603260045260246000fd5b634e487b7160e01b600052601160045260246000fd5b8181038181111562000231576200023162000312565b60006001820162000353576200035362000312565b5060010190565b8381526001600160a01b03838116602080840191909152610100830191604084018560005b6006811015620003a05781518416835291840191908401906001016200037f565b5050505050949350505050565b8082018082111562000231576200023162000312565b608051611a87620003f4600039600081816104f1015281816108e5015281816109410152610c140152611a876000f3fe6080604052600436106100d55760003560e01c8063913a8f8811610079578063cc06c35911610056578063cc06c359146102be578063d0b06f5d146102d3578063dfac767c146102e9578063fb1359a31461030957005b8063913a8f881461026d57806394328eab14610283578063a224dcb71461029e57005b80634420e486116100b25780634420e486146101905780635f8e7d03146101a35780638212e2bb146101d057806390e7af8f1461023557005b806305ca4ba61461013957806312065fe0146101595780632c4d363a1461017b57005b36610137576001546001146101215760405162461bcd60e51b815260206004820152600d60248201526c4e6f207265656e7472616e637960981b60448201526064015b60405180910390fd5b60026001556101303334610337565b6001808055005b005b34801561014557600080fd5b50610137610154366004611703565b610655565b34801561016557600080fd5b50475b6040519081526020015b60405180910390f35b34801561018757600080fd5b50610137610936565b61013761019e366004611738565b610b2e565b3480156101af57600080fd5b506101c36101be366004611738565b610f35565b604051610172919061175c565b3480156101dc57600080fd5b506101f06101eb3660046117a0565b610fd7565b604080518351815260208085015190820152838201511515918101919091526060808401519082015260809283015115159281019290925260a082015260c001610172565b34801561024157600080fd5b506102556102503660046117d0565b6110b3565b6040516001600160a01b039091168152602001610172565b34801561027957600080fd5b5061016860175481565b34801561028f57600080fd5b50610168662386f26fc1000081565b3480156102aa57600080fd5b506101376102b93660046117d0565b61112a565b3480156102ca57600080fd5b50610168601381565b3480156102df57600080fd5b5061016860005481565b3480156102f557600080fd5b506101376103043660046117e9565b6112b6565b34801561031557600080fd5b50610329610324366004611815565b6113a8565b604051610172929190611837565b6001600160a01b038216600090815260166020526040812060030154819081908190600160a01b900460ff16156103d657506001600160a01b03851660009081526016602052604090205480156103995761039285826114d6565b935061039d565b8493505b6001600160a01b0386166000908152601660205260409020600201546103c49060016114d6565b92506103cf836114eb565b91506103e8565b84935060009250662386f26fc1000091505b6013831161064d575b818410610631576001600160a01b038616600090815260166020526040902060030154600160a01b900460ff16156104ca576001600160a01b0386166000908152601660205260409020600201839055801580159061044f57508084105b156104a8576000610460828661152c565b905080876001600160a01b03167f7e400c520d3c15affc1a9456dc5c2cc9120b1dbf41de20aa72f72c7a28afbdb78660405161049e91815260200190565b60405180910390a3505b506001600160a01b03851660009081526016602052604090208390558261058b565b6040805160a081018252858152600060208083018281528385018381526001600160a01b037f00000000000000000000000000000000000000000000000000000000000000008116606087019081526001608088018181528f841688526016909652979095209551865591518587015551600285015591516003909301805491511515600160a01b0274ffffffffffffffffffffffffffffffffffffffffff199092169390921692909217919091179055601754610587916114d6565b6017555b6002836014811061059e5761059e61188a565b0154604051632210724360e11b81526001600160a01b03888116600483015290911690634420e48690602401600060405180830381600087803b1580156105e457600080fd5b505af11580156105f8573d6000803e3d6000fd5b50505050600084111561062c5761060f848361152c565b935061061c826002611538565b91506106298360016114d6565b92505b6103f1565b6001600160a01b03861660009081526016602052604090208490555b505050505050565b61065e33611544565b6106aa5760405162461bcd60e51b815260206004820152600f60248201527f6163636573732064656e696564203100000000000000000000000000000000006044820152606401610118565b60006106b5836114eb565b9050600082600003610799576001600160a01b0385166000908152601660205260409020600101546106e790836114d6565b6001600160a01b038616600081815260166020908152604091829020600101939093555184815286927ff21adea5d57308a9db93e1096251a15ccaaf229f57256fe0249cb1a99a272e11910160405180910390a36107796040518060400160405280601881526020017f656d6974204769667441707065617220323332333233373700000000000000008152506115a2565b610782856115fe565b61078b8261165f565b6107948461165f565b6108c9565b826001036107e6576001600160a01b0385166000908152601660205260409020546107c490836114d6565b6001600160a01b038616600090815260166020526040902081905590506108c9565b826002036108c95761082c6040518060400160405280601181526020017f656d69745f526566657272616c4561726e0000000000000000000000000000008152506115a2565b6001600160a01b03808616600090815260166020526040808220600301549092168082529190205461085e90846114d6565b6001600160a01b03821660009081526016602052604090208190559150610884816115fe565b806001600160a01b03167ff12b2843e484494d3969f07ce4c55c52b8c8a5132e75eb3366052da4773aa64c836040516108bf91815260200190565b60405180910390a2505b60006108d6836002611538565b905080821015801561091a57507f00000000000000000000000000000000000000000000000000000000000000006001600160a01b0316866001600160a01b031614155b80156109265750601385105b1561064d5761064d866000610337565b336001600160a01b037f000000000000000000000000000000000000000000000000000000000000000016146109ae5760405162461bcd60e51b815260206004820152600f60248201527f6163636573732064656e696564203300000000000000000000000000000000006044820152606401610118565b47806109fc5760405162461bcd60e51b815260206004820152601060248201527f62616c616e636520697320656d707479000000000000000000000000000000006044820152606401610118565b6000610a286018610a22603c610a22603c610a226000544261152c90919063ffffffff16565b906116bd565b905061016d811015610a7c5760405162461bcd60e51b815260206004820152600f60248201527f79656172206e6f742070617373656400000000000000000000000000000000006044820152606401610118565b6000610a8983600a6116bd565b604051909150600090339083908381818185875af1925050503d8060008114610ace576040519150601f19603f3d011682016040523d82523d6000602084013e610ad3565b606091505b5050905080610b245760405162461bcd60e51b815260206004820152600d60248201527f53656e64696e67206572722035000000000000000000000000000000000000006044820152606401610118565b5050426000555050565b600154600114610b705760405162461bcd60e51b815260206004820152600d60248201526c4e6f207265656e7472616e637960981b6044820152606401610118565b600260015533600090815260166020526040902060030154600160a01b900460ff1615610bdf5760405162461bcd60e51b815260206004820152601760248201527f7573657220616c726561647920726567697374657265640000000000000000006044820152606401610118565b6001600160a01b038116600090815260166020526040812060030154600160a01b900460ff1615610c11575080610c34565b507f00000000000000000000000000000000000000000000000000000000000000005b6001600160a01b038116600090815260166020526040812060010154662386f26fc100001115610cdd57662386f26fc10000341015610cb55760405162461bcd60e51b815260206004820152601060248201527f6e6f7420656e6f7567682066756e6473000000000000000000000000000000006044820152606401610118565b662386f26fc10000341115610cd857610cd534662386f26fc1000061152c565b90505b610d5a565b6001600160a01b038216600090815260166020526040902060010154610d0a90662386f26fc1000061152c565b6001600160a01b038084166000908152601660205260408082206001019390935591513493503392918616917fbd12288e8626cfe57c1e012597350541d71005ccfd811a620668d4366c488f4b91a35b6040805160a081018252600080825260208083018281528385018381526001600160a01b03808916606087019081526001608088018181523388526016909652978620965187559251968601969096555160028086019190915590516003909401805492511515600160a01b0274ffffffffffffffffffffffffffffffffffffffffff199093169490951693909317179092550154604051632210724360e11b81523360048201526001600160a01b0390911690634420e48690602401600060405180830381600087803b158015610e3157600080fd5b505af1158015610e45573d6000803e3d6000fd5b505050506000811115610eec57604051600090339083908381818185875af1925050503d8060008114610e94576040519150601f19603f3d011682016040523d82523d6000602084013e610e99565b606091505b5050905080610eea5760405162461bcd60e51b815260206004820152600d60248201527f53656e64696e67206572722033000000000000000000000000000000000000006044820152606401610118565b505b6040518181526001600160a01b0383169033907f6ab541b1c1f8ccbaff8d2e99776a9031b131e4282e138c33dc645fcff8b2c8139060200160405180910390a350506001805550565b610f726040518060a0016040528060008152602001600081526020016000815260200160006001600160a01b031681526020016000151581525090565b506001600160a01b03908116600090815260166020908152604091829020825160a081018452815481526001820154928101929092526002810154928201929092526003909101549182166060820152600160a01b90910460ff161515608082015290565b61100d6040518060a001604052806000815260200160008152602001600015158152602001600081526020016000151581525090565b6000600284601481106110225761102261188a565b01546040517f6f77926b0000000000000000000000000000000000000000000000000000000081526001600160a01b03858116600483015290911690636f77926b9060240160c060405180830381865afa158015611084573d6000803e3d6000fd5b505050506040513d601f19601f820116820180604052508101906110a891906118b5565b909590945092505050565b600060138211156111065760405162461bcd60e51b815260206004820152601660248201527f5f6c6576656c2065786365656473206d6178696d756d000000000000000000006044820152606401610118565b600282601481106111195761111961188a565b01546001600160a01b031692915050565b33600090815260166020526040902054811015611205573360009081526016602052604090205461115b908261152c565b3360008181526016602052604080822093909355915183908381818185875af1925050503d80600081146111ab576040519150601f19603f3d011682016040523d82523d6000602084013e6111b0565b606091505b50509050806112015760405162461bcd60e51b815260206004820152600d60248201527f53656e64696e67206572722031000000000000000000000000000000000000006044820152606401610118565b5050565b33600081815260166020526040808220805490839055905190929083908381818185875af1925050503d806000811461125a576040519150601f19603f3d011682016040523d82523d6000602084013e61125f565b606091505b50509050806112b05760405162461bcd60e51b815260206004820152600d60248201527f53656e64696e67206572722032000000000000000000000000000000000000006044820152606401610118565b50505b50565b6112bf33611544565b61130b5760405162461bcd60e51b815260206004820152600f60248201527f6163636573732064656e696564203200000000000000000000000000000000006044820152606401610118565b60138110611317575050565b60006113276002610a22846114eb565b90506000836001600160a01b03166108fc839081150290604051600060405180830381858888f193505050509050806113a25760405162461bcd60e51b815260206004820152600d60248201527f53656e64696e67206572722034000000000000000000000000000000000000006044820152606401610118565b50505050565b6040805160a0810182526000808252602082018190529181018290526060810182905260808101829052600284601481106113e5576113e561188a565b01546040517fcca76c5d000000000000000000000000000000000000000000000000000000008152600481018590526001600160a01b039091169063cca76c5d90602401602060405180830381865afa158015611446573d6000803e3d6000fd5b505050506040513d601f19601f8201168201806040525081019061146a9190611958565b6001600160a01b03818116600090815260166020908152604091829020825160a081018452815481526001820154928101929092526002810154928201929092526003909101549182166060820152600160a01b90910460ff1615156080820152909590945092505050565b60006114e2828461198b565b90505b92915050565b6000662386f26fc1000082156114e55760005b8381101561152557611511826002611538565b91508061151d8161199e565b9150506114fe565b5092915050565b60006114e282846119b7565b60006114e282846119ca565b6000805b601481101561159957826001600160a01b03166002826014811061156e5761156e61188a565b01546001600160a01b0316036115875750600192915050565b806115918161199e565b915050611548565b50600092915050565b6112b3816040516024016115b691906119e1565b60408051601f198184030181529190526020810180516001600160e01b03167f41304fac000000000000000000000000000000000000000000000000000000001790526116c9565b6040516001600160a01b03821660248201526112b39060440160408051601f198184030181529190526020810180516001600160e01b03167f2c2ecbc2000000000000000000000000000000000000000000000000000000001790526116c9565b6112b38160405160240161167591815260200190565b60408051601f198184030181529190526020810180516001600160e01b03167ff82c50f1000000000000000000000000000000000000000000000000000000001790526116c9565b60006114e28284611a2f565b6112b38160006a636f6e736f6c652e6c6f679050600080835160208501845afa505050565b6001600160a01b03811681146112b357600080fd5b60008060006060848603121561171857600080fd5b8335611723816116ee565b95602085013595506040909401359392505050565b60006020828403121561174a57600080fd5b8135611755816116ee565b9392505050565b60a081016114e582848051825260208101516020830152604081015160408301526001600160a01b0360608201511660608301526080810151151560808301525050565b600080604083850312156117b357600080fd5b8235915060208301356117c5816116ee565b809150509250929050565b6000602082840312156117e257600080fd5b5035919050565b600080604083850312156117fc57600080fd5b8235611807816116ee565b946020939093013593505050565b6000806040838503121561182857600080fd5b50508035926020909101359150565b6001600160a01b038316815260c0810161175560208301848051825260208101516020830152604081015160408301526001600160a01b0360608201511660608301526080810151151560808301525050565b634e487b7160e01b600052603260045260246000fd5b805180151581146118b057600080fd5b919050565b60008082840360c08112156118c957600080fd5b60a08112156118d757600080fd5b5060405160a0810181811067ffffffffffffffff8211171561190957634e487b7160e01b600052604160045260246000fd5b80604052508351815260208401516020820152611928604085016118a0565b604082015260608401516060820152611943608085016118a0565b608082015260a0939093015192949293505050565b60006020828403121561196a57600080fd5b8151611755816116ee565b634e487b7160e01b600052601160045260246000fd5b808201808211156114e5576114e5611975565b6000600182016119b0576119b0611975565b5060010190565b818103818111156114e5576114e5611975565b80820281158282048414176114e5576114e5611975565b600060208083528351808285015260005b81811015611a0e578581018301518582016040015282016119f2565b506000604082860101526040601f19601f8301168501019250505092915050565b600082611a4c57634e487b7160e01b600052601260045260246000fd5b50049056fea2646970667358221220066a0a3cc8baab851bf9cadb75d555a41f31a3eb649be664e2f94d12df82e58b64736f6c6343000811003360c06040523480156200001157600080fd5b5060405162001a8638038062001a8683398101604081905262000034916200059e565b60005b60068160ff161015620001ac576000808062000052620001c6565b6040805160a0810182526002548152602081018590526000918101829052606081018490526001608082015293965091945092508290036200009657600160408201525b80600080888860ff1660068110620000b257620000b26200064c565b602090810291909101516001600160a01b031682528181019290925260409081016000208351815591830151600183015582015160028201805491151560ff199283161790556060830151600383015560809092015160049091018054911515919092161790558560ff8616600681106200013157620001316200064c565b6020020151600160008760ff16815260200190815260200160002060006101000a8154816001600160a01b0302191690836001600160a01b031602179055506200018d6001600254620004e660201b620005cc1790919060201c565b60025550839250620001a3915082905062000678565b91505062000037565b50506080919091526001600160a01b031660a05262000831565b600080600080620003aa620001ec60028054620004e660201b620005cc1790919060201c565b604080517ff8f9cbfae6cc78fbefe7cdc3a1793dfcf4f0e8bbd8cec470b6a28a7a5a3e1efd81527ff5ecf1b3e9debc68e1d9cfabc5997135bfb7a7a3938b7b606b5b4b3f2f1f0ffe60208201527ff6e4ed9ff2d6b458eadcdf97bd91692de2d4da8fd2d0ac50c6ae9a8272523616818301527fc8c0b887b0a8a4489c948c7f847c6125746c645c544c444038302820181008ff60608201527ff7cae577eec2a03cf3bad76fb589591debb2dd67e0aa9834bea6925f6a4a2e0e60808201527fe39ed557db96902cd38ed14fad815115c786af479b7e8324736353433727170760a08201527fc976c13bb96e881cb166a933a55e490d9d56952b8d4e801485467d236242260660c08201527f753a6d1b65325d0c552a4d1345224105391a310b29122104190a11030902010060e0820152610100808201909252600160f81b6001600160801b68010000000000000000640100000000620100006010600460026000198c019081041790810417908104178881041790810417908104179081041790810417017e818283848586878898a8b8c8d8e8f929395969799a9b9d9e9faaeb6bedeeff0281900460ff039091015104600160ff1b909211020190565b905060006002821015620003c157506000620003eb565b620003e86000620003e2600285620004fd60201b620005e11790919060201c565b6200050b565b90505b60006200040e6000620003e2600186620004fd60201b620005e11790919060201c565b90506000816002546200042291906200069a565b6200042f906001620006b0565b905060006200044e6002836200054f60201b620005ed1790919060201c565b905060006200046d6002846200055d60201b620005f91790919060201c565b9050600181101562000482575060016200049f565b6200049c8282620004e660201b620005cc1790919060201c565b90505b6000620004d5620004c0600184620004fd60201b620005e11790919060201c565b87620004e660201b620005cc1790919060201c565b9a9699509197509495505050505050565b6000620004f48284620006b0565b90505b92915050565b6000620004f482846200069a565b6000825b82811015620005485762000525816002620007c3565b620005319083620006b0565b9150806200053f81620007d1565b9150506200050f565b5092915050565b6000620004f4828462000803565b6000620004f482846200081a565b80516001600160a01b03811681146200058357600080fd5b919050565b634e487b7160e01b600052604160045260246000fd5b6000806000610100808587031215620005b657600080fd5b845193506020620005c98187016200056b565b935086605f870112620005db57600080fd5b60405160c081016001600160401b038111828210171562000600576200060062000588565b6040529186019180888411156200061657600080fd5b604088015b848110156200063d576200062f816200056b565b82529083019083016200061b565b50508093505050509250925092565b634e487b7160e01b600052603260045260246000fd5b634e487b7160e01b600052601160045260246000fd5b600060ff821660ff810362000691576200069162000662565b60010192915050565b81810381811115620004f757620004f762000662565b80820180821115620004f757620004f762000662565b600181815b8085111562000707578160001904821115620006eb57620006eb62000662565b80851615620006f957918102915b93841c9390800290620006cb565b509250929050565b6000826200072057506001620004f7565b816200072f57506000620004f7565b8160018114620007485760028114620007535762000773565b6001915050620004f7565b60ff84111562000767576200076762000662565b50506001821b620004f7565b5060208310610133831016604e8410600b841016171562000798575081810a620004f7565b620007a48383620006c6565b8060001904821115620007bb57620007bb62000662565b029392505050565b6000620004f483836200070f565b600060018201620007e657620007e662000662565b5060010190565b634e487b7160e01b600052601260045260246000fd5b600082620008155762000815620007ed565b500690565b6000826200082c576200082c620007ed565b500490565b60805160a0516111c6620008c06000396000818161027a015281816102a70152818161046b015281816109fc01528181610adc01528181610b570152610c6501526000818161019001528181610444015281816104c90152818161098a015281816109cf01528181610aaf01528181610b2a01528181610bb501528181610c380152610cc301526111c66000f3fe6080604052600436106100795760003560e01c80639a0fa3c01161004b5780639a0fa3c01461017e578063cca76c5d146101b2578063d88f666b146101e8578063ffc0483d1461026857005b80634420e48614610082578063554d63c5146100a25780636f77926b146100cb578063984da82e1461013057005b3661008057005b005b34801561008e57600080fd5b5061008061009d366004610f52565b61029c565b3480156100ae57600080fd5b506100b860025481565b6040519081526020015b60405180910390f35b3480156100d757600080fd5b506100eb6100e6366004610f52565b610530565b604080518351815260208085015190820152838201511515918101919091526060808401519082015260809283015115159281019290925260a082015260c0016100c2565b34801561013c57600080fd5b5061016661014b366004610f82565b6001602052600090815260409020546001600160a01b031681565b6040516001600160a01b0390911681526020016100c2565b34801561018a57600080fd5b506100b87f000000000000000000000000000000000000000000000000000000000000000081565b3480156101be57600080fd5b506101666101cd366004610f82565b6000908152600160205260409020546001600160a01b031690565b3480156101f457600080fd5b50610237610203366004610f52565b600060208190529081526040902080546001820154600283015460038401546004909401549293919260ff91821692911685565b6040516100c29594939291909485526020850193909352901515604084015260608301521515608082015260a00190565b34801561027457600080fd5b506101667f000000000000000000000000000000000000000000000000000000000000000081565b336001600160a01b037f00000000000000000000000000000000000000000000000000000000000000001614610332576040517f08c379a000000000000000000000000000000000000000000000000000000000815260206004820152601060248201527f6163636573732064656e69656420303200000000000000000000000000000000604482015260640160405180910390fd5b600080600061033f610605565b6040805160a081018252600254815260208101859052600091810182905260608101849052600160808201529396509194509250829003610391576001604082015283156103915761039184866108e7565b6001600160a01b03851660009081526020818152604091829020835181559083015160018201559082015160028201805491151560ff1992831617905560608301516003830155608083015160049092018054921515929091169190911790556103fa85610db4565b600084815260016020526040908190205490517fdfac767c0000000000000000000000000000000000000000000000000000000081526001600160a01b03918216600482018190527f00000000000000000000000000000000000000000000000000000000000000006024830152917f0000000000000000000000000000000000000000000000000000000000000000169063dfac767c90604401600060405180830381600087803b1580156104af57600080fd5b505af11580156104c3573d6000803e3d6000fd5b505050507f0000000000000000000000000000000000000000000000000000000000000000816001600160a01b0316876001600160a01b03167fecc93e3681e475770b08d7067a66d2a6e16620b712ed2dab831114964ca6326a60405160405180910390a4505050505050565b6105666040518060a001604052806000815260200160008152602001600015158152602001600081526020016000151581525090565b506001600160a01b031660009081526020818152604091829020825160a0810184528154815260018201549281019290925260028082015460ff908116151594840194909452600382015460608401526004909101549092161515608082015290549091565b60006105d88284610fb1565b90505b92915050565b60006105d88284610fc4565b60006105d88284610fed565b60006105d88284611001565b600080600080610826610623600280546105cc90919063ffffffff16565b604080517ff8f9cbfae6cc78fbefe7cdc3a1793dfcf4f0e8bbd8cec470b6a28a7a5a3e1efd81527ff5ecf1b3e9debc68e1d9cfabc5997135bfb7a7a3938b7b606b5b4b3f2f1f0ffe60208201527ff6e4ed9ff2d6b458eadcdf97bd91692de2d4da8fd2d0ac50c6ae9a8272523616818301527fc8c0b887b0a8a4489c948c7f847c6125746c645c544c444038302820181008ff60608201527ff7cae577eec2a03cf3bad76fb589591debb2dd67e0aa9834bea6925f6a4a2e0e60808201527fe39ed557db96902cd38ed14fad815115c786af479b7e8324736353433727170760a08201527fc976c13bb96e881cb166a933a55e490d9d56952b8d4e801485467d236242260660c08201527f753a6d1b65325d0c552a4d1345224105391a310b29122104190a11030902010060e08201526101008082019092527f0100000000000000000000000000000000000000000000000000000000000000600170010000000000000000000000000000000068010000000000000000640100000000620100006010600460026000198c019081041790810417908104178881041790810417908104179081041790810417017e818283848586878898a8b8c8d8e8f929395969799a9b9d9e9faaeb6bedeeff0281900460ff0390910151047f8000000000000000000000000000000000000000000000000000000000000000909211020190565b90506000600282101561083b57506000610853565b610850600061084b8460026105e1565b610e0b565b90505b60006108648161084b8560016105e1565b90506000816002546108769190610fc4565b610881906001610fb1565b905060006108908260026105ed565b9050600061089f8360026105f9565b905060018110156108b2575060016108bf565b6108bc81836105cc565b90505b60006108d66108cf8360016105e1565b87906105cc565b9a9699509197509495505050505050565b6000828152600160208181526040808420546001600160a01b031680855284835293819020815160a08101835281548152938101549284019290925260028083015460ff9081161515928501929092526003830154606085015260049092015416151560808301525b60058111610dad57816040015115610dad576020808301516000908152600190915260409020546001600160a01b031660038211610c19577f0000000000000000000000000000000000000000000000000000000000000000600003610a5e576040516302e525d360e11b81526001600160a01b0382811660048301527f00000000000000000000000000000000000000000000000000000000000000006024830152600060448301527f000000000000000000000000000000000000000000000000000000000000000016906305ca4ba6906064015b600060405180830381600087803b158015610a4157600080fd5b505af1158015610a55573d6000803e3d6000fd5b50505050610d30565b81600203610b0b57610a8760405180606001604052806024815260200161116d60249139610e47565b610a9081610ebb565b6040516302e525d360e11b81526001600160a01b0382811660048301527f00000000000000000000000000000000000000000000000000000000000000006024830152600260448301527f000000000000000000000000000000000000000000000000000000000000000016906305ca4ba690606401610a27565b6040516302e525d360e11b81526001600160a01b0382811660048301527f00000000000000000000000000000000000000000000000000000000000000006024830152600160448301527f000000000000000000000000000000000000000000000000000000000000000016906305ca4ba690606401600060405180830381600087803b158015610b9b57600080fd5b505af1158015610baf573d6000803e3d6000fd5b505050507f0000000000000000000000000000000000000000000000000000000000000000816001600160a01b0316866001600160a01b03167f083f8def74523adc5a40763e69a11fe897a82317bbd31a43bce33f3f140bfe0d60405160405180910390a4610d30565b6040516302e525d360e11b81526001600160a01b0382811660048301527f00000000000000000000000000000000000000000000000000000000000000006024830152600160448301527f000000000000000000000000000000000000000000000000000000000000000016906305ca4ba690606401600060405180830381600087803b158015610ca957600080fd5b505af1158015610cbd573d6000803e3d6000fd5b505050507f0000000000000000000000000000000000000000000000000000000000000000816001600160a01b0316866001600160a01b03167f083f8def74523adc5a40763e69a11fe897a82317bbd31a43bce33f3f140bfe0d60405160405180910390a481600503610d305750610dad565b50602091820151600090815260018084526040808320546001600160a01b0316835282855291829020825160a081018452815481529181015494820194909452600284015460ff90811615159282019290925260038401546060820152600490930154161515608083015280610da581611015565b915050610950565b5050505050565b60028054600090815260016020819052604090912080547fffffffffffffffffffffffff0000000000000000000000000000000000000000166001600160a01b0385161790559054610e05916105cc565b60025550565b6000825b82811015610e4057610e22816002611112565b610e2c9083610fb1565b915080610e3881611015565b915050610e0f565b5092915050565b610eb881604051602401610e5b919061111e565b60408051601f198184030181529190526020810180517bffffffffffffffffffffffffffffffffffffffffffffffffffffffff167f41304fac00000000000000000000000000000000000000000000000000000000179052610f2d565b50565b6040516001600160a01b0382166024820152610eb89060440160408051601f198184030181529190526020810180517bffffffffffffffffffffffffffffffffffffffffffffffffffffffff167f2c2ecbc2000000000000000000000000000000000000000000000000000000001790525b610eb88160006a636f6e736f6c652e6c6f679050600080835160208501845afa505050565b600060208284031215610f6457600080fd5b81356001600160a01b0381168114610f7b57600080fd5b9392505050565b600060208284031215610f9457600080fd5b5035919050565b634e487b7160e01b600052601160045260246000fd5b808201808211156105db576105db610f9b565b818103818111156105db576105db610f9b565b634e487b7160e01b600052601260045260246000fd5b600082610ffc57610ffc610fd7565b500690565b60008261101057611010610fd7565b500490565b60006001820161102757611027610f9b565b5060010190565b600181815b8085111561106957816000190482111561104f5761104f610f9b565b8085161561105c57918102915b93841c9390800290611033565b509250929050565b600082611080575060016105db565b8161108d575060006105db565b81600181146110a357600281146110ad576110c9565b60019150506105db565b60ff8411156110be576110be610f9b565b50506001821b6105db565b5060208310610133831016604e8410600b84101617156110ec575081810a6105db565b6110f6838361102e565b806000190482111561110a5761110a610f9b565b029392505050565b60006105d88383611071565b600060208083528351808285015260005b8181101561114b5785810183015185820160400152820161112f565b506000604082860101526040601f19601f830116850101925050509291505056fe7570646174652077686f73652066726f6d204d617472697854656d706c6174652e736f6ca26469706673582212209f4b5e250973d2560dbefe5cb644f9393a289a5540d98cef1a1b95bd33b7f7bd64736f6c63430008110033",
  "linkReferences": {},
  "deployedLinkReferences": {}
}